:020000040800F2
:1000000000000824FD150008F5130008FB13000884
:1000100001140008071400080D1400080000000077
:10002000000000000000000000000000E1D900080E
:10003000131400080000000031DC0008B1CC0008F7
:100040004D1600084D1600084D1600084D16000804
:100050004D1600084D1600084D1600084D160008F4
:100060004D1600084D1600084D1600084D160008E4
:100070004D1600084D1600084D1600084D160008D4
:100080004D1600084D1600084D1600084D160008C4
:100090004D1600084D1600084D1600084D160008B4
:1000A0004D1600084D1600084D1600084D160008A4
:1000B0004D1600084D1600084D1600084D16000894
:1000C0004D1600084D1600084D1600084D16000884
:1000D0004D1600084D1600084D1600084D16000874
:1000E0004D1600084D160008000000004D160008CF
:1000F0004D1600084D1600084D1600084D16000854
:100100004D1600084D1600084D1600084D16000843
:100110004D1600084D160008211400084D16000861
:100120004D1600084D1600084D1600084D16000823
:100130004D1600084D1600084D1600084D16000813
:100140004D1600084D1600080000000000000000D9
:100150004D1600084D1600084D1600084D160008F3
:100160004D1600084D1600084D1600084D160008E3
:100170004D1600084D1600084D160008000000003E
:100180004D1600084D1600084D1600084D160008C3
:100190004D1600084D1600084D1600084D160008B3
:1001A000351400084D160008491400084D160008C3
:1001B0005D1400084D1600084D1600084D16000885
:1001C0004D1600084D1600084D1600084D16000883
:1001D0004D1600084D1600084D1600084D16000873
:1001E0004D1600084D1600084D1600084D16000863
:1001F0004D1600084D1600084D1600084D16000853
:100200004D1600084D1600084D1600084D16000842
:100210004D1600084D1600084D1600084D16000832
:100220004D1600084D1600084D160008000000008D
:100230004D1600084D1600084D1600084D16000812
:100240004D1600084D1600084D1600084D16000802
:100250004D1600084D1600084D1600084D160008F2
:100260004D1600084D1600084D1600084D160008E2
:100270004D1600084D1600084D1600084D160008D2
:100280004D1600084D1600084D160008000000002D
:080290004D1600084D16000890
:1002A00010B5054C237833B9044B13B10448AFF3B0
:1002B00000800123237010BD2C01002400000000E9
:1002C000D4CE020808B5034B1BB103490348AFF372
:1002D000008008BD0000000030010024D4CE0208D8
:1002E00001F0FF01102A2BDB10F0070F08D010F8E7
:1002F000013B013A8B422DD010F0070F42B3F6D1EB
:10030000F0B441EA012141EA014122F007047FF003
:1003100000070023F0E80256083C85EA010586EA5A
:10032000010685FA47F5A3FA87F586FA47F6A5FA96
:1003300087F68EB9EED1F0BC01F0FF0102F00702A2
:1003400032B110F8013B013A83EA010313B1F8D14D
:100350000020704701387047002D06BF354603382E
:10036000073815F0010F07D1013015F4807F02BF67
:10037000013015F4C03F0130F0BC0138704700BFB8
:1003800080B586B000AF00F063FB644B5B6903F49B
:100390000033002B1BD1BFF34F8F00BFBFF36F8F14
:1003A00000BF5E4B0022C3F85022BFF34F8F00BF47
:1003B000BFF36F8F00BF594B5B69584A43F400335A
:1003C0005361BFF34F8F00BFBFF36F8F00E000BFDB
:1003D000524B5B6903F48033002B38D14F4B002222
:1003E000C3F88420BFF34F8F00BF4C4BD3F880304D
:1003F0003B613B695B0BC3F30E03FB603B69DB08AE
:10040000C3F30903BB60FB685A0143F6E073134072
:10041000BA68920741491343C1F86032BB685A1E5B
:10042000BA60002BEFD1FB685A1EFA60002BE5D1B1
:10043000BFF34F8F00BF394B5B69384A43F48033B9
:100440005361BFF34F8F00BFBFF36F8F00E000BF5A
:100450004FF6FF737B6100BF314B1B6803F4004311
:10046000002B04D07B695A1E7A61002BF4DC7B6977
:10047000002B01DA00F036FB12F030FC00F05EF8E1
:10048000274BD3F8E030264A43F00073C2F8E0303F
:10049000234BD3F8E03003F000737B607B680020CF
:1004A00013F044FB0021002013F05AFB4FF6FF73BA
:1004B0007B6100BF1A4B1B6803F40043002B04D17F
:1004C0007B695A1E7A61002BF4DC7B69002B01DA10
:1004D00000F008FB00F008FA00F082F900F0AEF935
:1004E00000F0FAF800F0B8F800F0D8F801F0AFF832
:1004F0000CF0F8FB0B4A00210B480CF03DFC0346C6
:100500000A4A13600A4A00210A480CF035FC0346E7
:10051000094A13600CF00AFCFEE700BF00ED00E0A2
:100520000044025808E30208410A000888B2002487
:100530002CE302085B1600082CB2002480B59CB0A6
:1005400000AF07F124034C22002118462BF0D4FC05
:100550003B1D2022002118462BF0CEFC042014F075
:1005600069FE00233B60394BDB6A384A23F0010304
:10057000D362364BDB6A03F001033B60344B9B696B
:10058000334A43F440439361314B9B6903F4404346
:100590003B603B6800BF2E4B9B6903F40053B3F5EF
:1005A000005FF8D12B4B9B6A23F00303294A43F0E9
:1005B0000203936203237B624FF48033BB62012307
:1005C0003B6340237B630223BB640223FB6405235C
:1005D0003B65A0237B650223BB650423FB650223E7
:1005E0003B6608237B660023BB660023FB6607F19E
:1005F0002403184615F05AFD0346002B01D000F0E5
:1006000071FA3F237B600323BB600023FB60082358
:100610003B6140237B614023BB614FF48063FB61FE
:1006200040233B623B1D0221184616F06BF903463E
:10063000002B01D000F056FA4FF480220021002058
:1006400016F016FB00BF7037BD4680BD0004005891
:10065000004802580044025880B500AF0D4B0E4AC6
:100660001A600C4B00221A710A4B00225A71094B76
:1006700000225A61074B00229A61064B01221A623E
:10068000044812F021FD0346002B01D000F02AFAA5
:1006900000BF80BD30B20024004C025880B500AFCE
:1006A0000B4B0C4A1A600A4B4FF440325A60084B0D
:1006B00002229A60064B0022DA60054812F0EEFD35
:1006C0000346002B01D000F00DFA00BF80BD00BF33
:1006D00078B100240010005280B58EB000AF00F059
:1006E00007FA3B1D3422002118462BF005FC3A4B3B
:1006F0003A4A1A60384B00225A60374B00229A60FF
:10070000354B0022DA60344B00221A61324B28222A
:100710005A61314B09229A612F4B3522DA612E4BF7
:100720000B221A622C4B40F215225A622A4B40F2DD
:100730001B129A62284B40F23522DA62264B40F2B5
:100740001D121A63244B002283F83420224B00220E
:1007500083F83520204B002283F836201E4814F001
:100760006DF80346002B01D000F0BCF900237B603C
:100770004FF4F073BB600023FB604FF488733B6160
:1007800002237B61FF23BB610023FB614FF4806385
:100790003B6205237B624FF05043BB624FF4F07322
:1007A000FB624FF488733B63002387F834300023E7
:1007B00087F83530002387F836303B1D0022194674
:1007C000054814F0C3F90346002B01D000F08AF964
:1007D00000BF3837BD4680BDD0B0002400100050A7
:1007E00080B500AF124B134A1A60114B01225A60B8
:1007F0000F4B01229A600E4B1022DA600C4B1A222A
:100800001A610B4B4FF400725A61094B00229A6136
:10081000074B40221A62064814F066FD0346002B7F
:1008200001D000F05FF9044800F0D6F900BF80BDA8
:10083000E0B1002400500052E50A000880B588B0FD
:1008400000AF3B1D00221A605A609A60DA601A619C
:100850005A619A61214B224A1A60204B01225A6048
:100860001E4B00229A601D4B0422DA601B4B1022A3
:100870001A611A4B40225A61184B4FF480729A61E8
:10088000164B0022DA61154B4FF400621A62134BCB
:100890004FF480525A62114B00229A6202237B600D
:1008A0000623BB600423FB6006233B6102237B61BC
:1008B0000223BB610223FB613B1D1946074817F069
:1008C000FDFC0346002B01D000F00CF9054800F0B8
:1008D000A4F900BF2037BD4680BD00BF54B200243C
:1008E00040410052E50A000880B58EB000AF07F124
:1008F000240300221A605A609A60DA601A614E4B33
:10090000D3F8E0304C4A43F48063C2F8E0304A4BFD
:10091000D3F8E03003F480633B623B6A464BD3F884
:10092000E030454A43F04003C2F8E030424BD3F890
:10093000E03003F04003FB61FB693F4BD3F8E0304C
:100940003D4A43F48073C2F8E0303B4BD3F8E030CB
:1009500003F48073BB61BB69374BD3F8E030364A90
:1009600043F01003C2F8E030334BD3F8E03003F02B
:1009700010037B617B69304BD3F8E0302E4A43F49F
:100980000073C2F8E0302C4BD3F8E03003F400736E
:100990003B613B69284BD3F8E030274A43F008031A
:1009A000C2F8E030244BD3F8E03003F00803FB60DA
:1009B000FB68214BD3F8E0301F4A43F00103C2F833
:1009C000E0301D4BD3F8E03003F00103BB60BB689F
:1009D000194BD3F8E030184A43F02003C2F8E03056
:1009E000154BD3F8E03003F020037B607B68124B9B
:1009F000D3F8E030104A43F08003C2F8E0300E4BE9
:100A0000D3F8E03003F080033B603B684FF4807321
:100A10007B620223BB620023FB6200233B63002353
:100A20007B6307F124031946044812F0ABFD00BFB5
:100A30003837BD4680BD00BF004402580000025850
:100A400080B582B000AF786001200CF027FAFBE798
:100A500080B584B000AF3B4600221A605A609A60AD
:100A6000DA6012F0B5FA01233B7000237B704FF07F
:100A700050437B6013233B7200237B720023BB72C5
:100A80000323FB7201233B7300237B730123BB739E
:100A90000123FB733B46184612F0D2FA01237B7008
:100AA0004FF010437B601A233B723B46184612F00E
:100AB000C7FA042012F0A4FA00BF1037BD4680BD6B
:100AC00080B582B000AF78607B681B68044A9342AF
:100AD00001D112F03FF900BF0837BD4680BD00BF0D
:100AE0000010004080B400AF72B600BFFEE7000007
:100AF00080B58CB000AF364BD3F8E430344A43F0C5
:100B00000803C2F8E430324BD3F8E43003F00803B2
:100B1000BB61BB692E4BD3F8E0302D4A43F48073A0
:100B2000C2F8E0302A4BD3F8E03003F480737B61E5
:100B30007B69274BD3F8E030254A43F40073C2F8B1
:100B4000E030234BD3F8E03003F400733B613B69A2
:100B50001F4BD3F8E0301E4A43F48063C2F8E03004
:100B60001B4BD3F8E03003F48063FB60FB68184B49
:100B7000D3F8E030164A43F08003C2F8E030144B5B
:100B8000D3F8E03003F08003BB60BB68104BD3F8B0
:100B9000E0300F4A43F00803C2F8E0300C4BD3F8C2
:100BA000E03003F008037B607B688023FB61012356
:100BB0003B6207F11C031946064812F0E3FC0122D0
:100BC0008021044812F098FF00BF3037BD4680BD39
:100BD00000440258000C025880B584B000AF786021
:100BE00003233B7301237B734023BB7307F10C0387
:100BF0001946002011F02CF80346002B01D07B6829
:100C00009847002011F0FEF80346002B01D07B68C6
:100C1000984700BF1037BD4680BD80B582B000AF99
:100C20007860002011F05CFC002011F0FDFB034611
:100C3000002B01D07B68984700BF0837BD4680BDB8
:100C400080B582B000AF0C4BD3F8F4300A4A43F0C1
:100C50000203C2F8F430084BD3F8F43003F0020377
:100C60007B607B6800220F216FF0010012F07AF99F
:100C700000BF0837BD4680BD0044025880B485B02F
:100C800000AF78607B681B680B4A93420ED10B4B18
:100C9000D3F8E030094A43F40023C2F8E030074BB0
:100CA000D3F8E03003F40023FB60FB6800BF143787
:100CB000BD465DF8047B7047004C02580044025862
:100CC00080B584B000AF78607B681B680E4A9342A1
:100CD00016D10E4BD3F8D4300C4A43F01003C2F8AF
:100CE000D4300A4BD3F8D43003F01003FB60FB6818
:100CF000002205215A2012F035F95A2012F04CF941
:100D000000BF1037BD4680BD00100052004402589D
:100D100080B5BCB000AF786007F1DC0300221A6038
:100D20005A609A60DA601A6107F12003BC22002140
:100D300018462BF0E1F87B681B68684A934240F044
:100D4000C8804FF000533B6205237B64A023BB6443
:100D50000223FB6402233B6553237B654FF400634E
:100D6000BB650023FB6500233B6607F120031846A3
:100D700016F000FA0346002B01D0FFF7B3FE584BE4
:100D8000D3F8E430564A43F00803C2F8E430544B39
:100D9000D3F8E43003F00803FB61FB69504BD3F850
:100DA000E0304F4A43F48063C2F8E0304C4BD3F854
:100DB000E03003F48063BB61BB69494BD3F8E0309A
:100DC000474A43F48073C2F8E030454BD3F8E03033
:100DD00003F480737B617B69414BD3F8E030404A78
:100DE00043F40073C2F8E0303D4BD3F8E03003F435
:100DF00000733B613B693A4BD3F8E030384A43F02B
:100E00008003C2F8E030364BD3F8E03003F08003C3
:100E1000FB60FB68FC23C7F8DC300223C7F8E03036
:100E20000023C7F8E4300223C7F8E8300E23C7F8E0
:100E3000EC3007F1DC0319462A4812F0A3FB4DF20F
:100E40000323C7F8DC300223C7F8E0300023C7F8DB
:100E5000E4300223C7F8E8300E23C7F8EC3007F17E
:100E6000DC031946204812F08DFB4FF6FB73C7F8E0
:100E7000DC300223C7F8E0300023C7F8E430022357
:100E8000C7F8E8300E23C7F8EC3007F1DC03194649
:100E9000164812F077FB4FF40073C7F8DC300223DA
:100EA000C7F8E0300023C7F8E4300223C7F8E83081
:100EB0000E23C7F8EC3007F1DC0319460C4812F09A
:100EC00061FB00220521582012F04CF8582012F046
:100ED00063F800BFF037BD4680BD00BF0010005072
:100EE00000440258002802580020025800240258EA
:100EF000001C025880B5BCB000AF786007F1DC037D
:100F000000221A605A609A60DA601A6107F12003C1
:100F1000BC22002118462AF0EFFF7B681B68764A46
:100F2000934240F0E4804FF000733B620023BB66C5
:100F300007F12003184616F01DF90346002B01D0D7
:100F4000FFF7D0FD6D4BD3F8D4306C4A43F48043A7
:100F5000C2F8D430694BD3F8D43003F48043FB613A
:100F6000FB69664BD3F8E030644A43F04003C2F8B3
:100F7000E030624BD3F8E03003F04003BB61BB6963
:100F80005E4BD3F8E0305D4A43F02003C2F8E03016
:100F90005A4BD3F8E03003F020037B617B69574B59
:100FA000D3F8E030554A43F08003C2F8E030534BA9
:100FB000D3F8E03003F080033B613B694F4BD3F83B
:100FC000E0304E4A43F00803C2F8E0304B4BD3F810
:100FD000E03003F00803FB60FB684FF48443C7F87C
:100FE000DC300223C7F8E0300023C7F8E4300323E5
:100FF000C7F8E8300923C7F8EC3007F1DC031946DD
:101000003F4812F0BFFA4023C7F8DC300223C7F88C
:10101000E0300123C7F8E4300323C7F8E8300A239F
:10102000C7F8EC3007F1DC031946354812F0AAFA8C
:101030004FF49863C7F8DC300223C7F8E030002390
:10104000C7F8E4300323C7F8E8300923C7F8EC30C9
:1010500007F1DC0319462B4812F094FA4FF40073A1
:10106000C7F8DC300223C7F8E0300023C7F8E430CB
:101070000323C7F8E8300A23C7F8EC3007F1DC0394
:101080001946204812F07EFA0C23C7F8DC30022300
:10109000C7F8E0300023C7F8E4300323C7F8E8308E
:1010A0000923C7F8EC3007F1DC031946164812F0A3
:1010B00069FA4FF40063C7F8DC300223C7F8E03068
:1010C0000023C7F8E4300323C7F8E8300923C7F842
:1010D000EC3007F1DC0319460C4812F053FA0022F9
:1010E00005215C2011F03EFF5C2011F055FF00BF90
:1010F000F037BD4680BD00BF00500052004402588A
:101100000018025800140258001C0258000C025823
:1011100080B5B6B000AF07F1C40300221A605A6070
:101120009A60DA601A614F4B1B68002B40F0968082
:101130004C4B01221A6007F10803BC22002118461B
:101140002AF0DAFE4FF08073BB600023FB6407F1E6
:101150000803184616F00EF80346002B01D0FFF7DF
:10116000C1FC414BD3F8D4303F4A43F48053C2F81A
:10117000D4303D4BD3F8D43003F480537B607B688C
:101180004FF68373C7F8C4300223C7F8C830002372
:10119000C7F8CC300323C7F8D0300C23C7F8D430BD
:1011A00007F1C4031946314812F0ECF948F2331341
:1011B000C7F8C4300223C7F8C8300023C7F8CC30C2
:1011C0000323C7F8D0300C23C7F8D43007F1C40389
:1011D0001946274812F0D6F94CF20373C7F8C43009
:1011E0000223C7F8C8300023C7F8CC300323C7F860
:1011F000D0300C23C7F8D43007F1C40319461D487A
:1012000012F0C0F94FF63F03C7F8C4300223C7F805
:10121000C8300023C7F8CC300323C7F8D0300C23E4
:10122000C7F8D43007F1C4031946134812F0AAF9DD
:10123000E023C7F8C4300223C7F8C8300023C7F83A
:10124000CC300323C7F8D0300C23C7F8D43007F1D3
:10125000C4031946094812F095F900E000BFD837D9
:10126000BD4680BD480100240044025800100258C9
:1012700000180258000C025800140258001C0258B2
:1012800080B582B000AF7860FFF742FF00BF08373B
:10129000BD4680BD80B500AF144B1B68002B23D129
:1012A000124B01221A60124BD3F8D430104A23F4A7
:1012B0008053C2F8D4304FF683710E4812F012FBFF
:1012C00048F233110C4812F00DFB4CF203710B483D
:1012D00012F008FB4FF63F01094812F003FBE02132
:1012E000084812F0FFFA00E000BF80BD4C01002466
:1012F000004402580010025800180258000C02580E
:1013000000140258001C025880B582B000AF78600B
:10131000FFF7C0FF00BF0837BD4680BD80B590B065
:1013200000AF78607B680F2B27D8002279683620C1
:1013300011F018FE362011F02FFE294A7B68136049
:10134000284BD3F8E830274A43F01003C2F8E830BE
:10135000244BD3F8E83003F01003FB60FB6807F17F
:10136000100207F114031146184615F0C1FEBB6ABE
:10137000BB63BB6B002B06D101E001232BE015F012
:101380008BFEF86304E015F087FE03465B00FB6309
:10139000FB6B154AA2FB03239B0C013B7B63134BA6
:1013A000134A1A60114B40F2E732DA600F4A7B6B46
:1013B00053600E4B00221A610C4B00229A600B48BE
:1013C00017F031F80346002B04D1084817F08CF8C9
:1013D000034600E0012318464037BD4680BD00BFEC
:1013E000480000240044025883DE1B438CB20024D2
:1013F0000010004080B400AFFEE780B400AFFEE70D
:1014000080B400AFFEE780B400AFFEE780B400AF69
:10141000FEE780B400AF00BFBD465DF8047B7047B7
:1014200080B500AF024817F0D7F800BF80BD00BFFD
:101430008CB2002480B500AF024813F0CFFA00BF91
:1014400080BD00BFD0B0002480B500AF024811F0CD
:1014500089FF00BF80BD00BF78B1002480B500AF18
:10146000024813F0B5FF00BF80BD00BFE0B100240B
:1014700080B400AF01231846BD465DF8047B704779
:1014800080B582B000AF786039602AF0DBFC03469B
:1014900016221A604FF0FF3318460837BD4680BD4C
:1014A00080B582B000AF78604FF0FF317868FFF709
:1014B000E7FFFEE780B586B000AFF860B9607A60FC
:1014C00000237B610AE0AFF300800146BB685A1C31
:1014D000BA60CAB21A707B6901337B617A697B6832
:1014E0009A42F0DB7B6818461837BD4680BD80B550
:1014F00086B000AFF860B9607A6000237B6109E0D4
:10150000BB685A1CBA601B781846AFF300807B6931
:1015100001337B617A697B689A42F1DB7B6818460C
:101520001837BD4680BD80B483B000AF78604FF0FF
:10153000FF3318460C37BD465DF8047B704780B416
:1015400083B000AF786039603B684FF400525A6056
:10155000002318460C37BD465DF8047B704780B405
:1015600083B000AF7860012318460C37BD465DF8A4
:10157000047B704780B485B000AFF860B9607A60D2
:10158000002318461437BD465DF8047B7047000001
:1015900080B586B000AF7860144A154BD31A7B61D2
:1015A0007B693B61134B1B68002B02D1114B124A24
:1015B0001A60104B1A687B6813443A699A4207D242
:1015C0002AF040FC03460C221A604FF0FF3309E07A
:1015D000084B1B68FB60074B1A687B681344054A7D
:1015E0001360FB6818461837BD4680BD000008240C
:1015F0000010000050010024B8B30024DFF834D0FC
:101600000EF032FF0C480D490D4A002302E0D45879
:10161000C4500433C4188C42F9D30A4A0A4C00233C
:1016200001E013600432A242FBD32AF023FCFEF750
:10163000A7FE704700000824000000242C010024AD
:10164000A42503082C010024B8B30024FEE780B5CC
:1016500000AF01F069FC00BF80BD80B582B000AF73
:10166000786001F08BFC00BF0837BD4680BD0000EC
:1016700080B483B000AF7860044A7B681A607B68EE
:1016800018460C37BD465DF8047B704770E30208CE
:1016900080B582B000AF78607868FFF7E9FF042179
:1016A00078682AF06EFB7B6818460837BD4680BD17
:1016B00080B582B000AF786000F0A8FA00BF0837AC
:1016C000BD4680BD80B584B000AFF860B9607A6077
:1016D0007968B86800F0BEFA034618461037BD4670
:1016E00080BD000080B582B000AF7860054A7B689D
:1016F0001A607B681846FFF7BBFF7B6818460837FF
:10170000BD4680BD58E3020880B582B000AF786066
:101710007868FFF7E7FF042178682AF032FB7B68DE
:1017200018460837BD4680BD80B483B000AF03467D
:10173000FB71FB79032B0CD801A252F823F000BFF8
:1017400051170008511700085117000851170008D9
:1017500000BF00BF0C37BD465DF8047B704700BF7B
:1017600080B483B000AF0346FB71FB79032B0CD828
:1017700001A252F823F000BF89170008891700085A
:10178000891700088917000800BF00BF0C37BD4645
:101790005DF8047B704700BF80B483B000AF0346A0
:1017A000FB71FB79032B0CD801A252F823F000BF88
:1017B000C1170008C1170008C1170008C1170008A9
:1017C00000BF00BF0C37BD465DF8047B704700BF0B
:1017D00080B483B000AF7860044A7B681A607B688D
:1017E00018460C37BD465DF8047B704734FF02088D
:1017F00080B582B000AF78607868FFF7E9FF7C21A0
:1018000078682AF0BEFA7B6818460837BD4680BD66
:1018100080B483B000AF78600B46FB707B68FA78C9
:1018200083F874207B68012283F8752000BF0C3791
:10183000BD465DF8047B704780B582B000AF78602C
:101840000B467B8013463B800C4B1B887A889A4260
:1018500004D30B4B1B883A889A4205D2094B0A4A9B
:101860009E210A482AF0BCFA094A7B881380094A5B
:101870003B88138000BF0837BD4680BD28AE0024DA
:101880002AAE002408CF02086CCF0208B0CF0208AD
:101890002EAE002430AE002480B582B000AF786058
:1018A0007B6893F87730002B09D07B685A687B6897
:1018B0005B681B681B6810469847034600E00023DE
:1018C00018460837BD4680BD80B582B000AF78604D
:1018D000786818F031FD7B681B68A4331B68786852
:1018E000984700BF0837BD4680BD80B483B000AFC5
:1018F00078603960002318460C37BD465DF8047BDC
:101900007047000080B584B000AFF860B9607A60BD
:101910003B60BB68002B06D1114B124A4FF42B7170
:1019200011482AF05DFAFB68BA68DA63FB687A68E6
:101930001A64FB683A685A647B68002B14BF012361
:101940000023DAB2094B1A703B68002B14BF012345
:101950000023DAB2064B1A7000BF1037BD4680BDB7
:1019600004D002083CD00208B0CF020832AE0024F6
:1019700033AE002480B483B000AF786000231846F3
:101980000C37BD465DF8047B704780B582B000AF70
:1019900078600B467B807B689B6B002B04D07B6858
:1019A0009B6B7A881046984700BF0837BD4680BDBC
:1019B00080B483B000AF78604FF6FF7318460C37E1
:1019C000BD465DF8047B704780B582B000AF78609B
:1019D0007B685A687B685B681B6818331B68104615
:1019E0009847034618460837BD4680BD80B485B089
:1019F00000AF78607B6893F874207B6893F834308C
:101A00009A4211D0144B1B78002B1ED1134B1B880C
:101A1000BB81134B1A88114B1A80114ABB89138062
:101A20000D4B01221A7010E00B4B1B78002B0CD0D1
:101A30000A4B1B88FB810A4B1A88084B1A80084AFC
:101A4000FB891380044B00221A7000BF1437BD4677
:101A50005DF8047B704700BF2CAE00242AAE002442
:101A600028AE002480B582B000AF78607B6818464D
:101A700017F018FE00BF0837BD4680BD80B582B0A4
:101A800000AF7860054A7B681A607B681846FFF7EC
:101A90009FFE7B6818460837BD4680BDD8E6020821
:101AA00080B582B000AF78607868FFF7E7FF7C21EF
:101AB00078682AF066F97B6818460837BD4680BD0D
:101AC00080B582B000AF78607B681846FFF7CAFF28
:101AD00000BF0837BD4680BD80B582B000AF7860DA
:101AE0007B68184601F038FD00BF0837BD4680BD51
:101AF00080B582B000AF78607B68184601F0C4FD05
:101B0000034618460837BD4680BD80B582B000AF99
:101B1000786039607B683968184601F0C3FD00BF02
:101B20000837BD4680BD80B582B000AF78603960AF
:101B30007B683968184601F0CBFD00BF0837BD4609
:101B400080BD80B584B000AFF860B9607A603B605A
:101B5000F8683B687A68B96801F012FE03461846D7
:101B60001037BD4680BD80B582B000AF78607B681D
:101B7000184601F015FD00BF0837BD4680BD80B591
:101B800082B000AF78607B68184601F019FD00BF95
:101B90000837BD4680BD80B582B000AF78607B68F5
:101BA000184601F01BFD00BF0837BD4680BD80B55B
:101BB00082B000AF78607B68184601F01DFD00BF61
:101BC0000837BD4680BD000080B582B000AF7860A8
:101BD000054A7B681A607B681846FFF74FFF7B68F1
:101BE00018460837BD4680BD88E3020880B582B03C
:101BF00000AF78607868FFF7E7FF7C2178682AF00B
:101C0000C0F87B6818460837BD4680BD80B584B0F3
:101C100000AF4FF4F0733B604FF488737B60082390
:101C2000BB600023FB603B461946002010F0DEFD40
:101C30000346002B14BF01230023DBB2002B03D18A
:101C4000034B01221A7000E000BF1037BD4680BD73
:101C50005401002480B582B000AF78603960114B28
:101C60001B7883F00103DBB2002B01D0002314E0CA
:101C70000D49002010F076FE0B4B1B68002B01D1A4
:101C800000230AE0084B5B681A467B681A60064B23
:101C90009B681A463B681A60012318460837BD4600
:101CA00080BD00BF540100245801002480B500AF5E
:101CB0000022012101200BF00CF903460F4A1360AA
:101CC0000E4B1B68002B05D10D4B0E4A28210E48E8
:101CD0002AF086F80022042101200BF019FA0346AD
:101CE0000A4A1360094B1B68002B05D1084B054AB3
:101CF0002C2105482AF074F800BF80BD640100243F
:101D00008CD00208D8D0020808D10208680100244B
:101D100054D1020880B500AF044B1B684FF0FF316F
:101D200018460BF05FF900BF80BD00BF64010024BE
:101D300080B500AF034B1B6818460BF0A5F900BF38
:101D400080BD00BF6401002480B500AF034B1B6859
:101D5000002118460BF046F900BF80BD6401002445
:101D600080B500AF034B1B6818460BF08DF900BF20
:101D700080BD00BF6401002480B500AF044B18682B
:101D80000023002203490BF037FA00BF80BD00BFDB
:101D9000680100240400002480B582B000AF094B24
:101DA0001868391D002300220BF086FA054B1868CD
:101DB000391D4FF0FF3300220BF07EFA00BF0837C9
:101DC000BD4680BD6801002480B483B000AF0346E7
:101DD000FB80B7F90630002B0BDBFB8803F01F02FA
:101DE0000749B7F906305B09012000FA02F241F811
:101DF000232000BF0C37BD465DF8047B704700BF51
:101E000000E100E080B483B000AF0346FB80B7F987
:101E10000630002B12DBFB8803F01F020A49B7F9DA
:101E200006305B09012000FA02F2203341F823203A
:101E3000BFF34F8F00BFBFF36F8F00BF00BF0C37E2
:101E4000BD465DF8047B704700E100E080B483B0DC
:101E500000AF78607B6800221A607B6818460C37F8
:101E6000BD465DF8047B704780B483B000AF7860F6
:101E70007B681B6818460C37BD465DF8047B7047CD
:101E800080B483B000AF7860044A7B681A607B68D6
:101E900018460C37BD465DF8047B7047A8E402087D
:101EA00080B582B000AF78607868FFF7E9FF042161
:101EB000786829F066FF7B6818460837BD4680BD04
:101EC00080B582B000AF78607B681B6844331B68C4
:101ED0007868984700BF0837BD4680BD80B483B09E
:101EE00000AF7860044A7B681A607B6818460C373C
:101EF000BD465DF8047B70478C04030880B582B052
:101F000000AF78607868FFF7E9FF0C21786829F066
:101F100038FF7B6818460837BD4680BD80B483B063
:101F200000AF78603960094A7B681A607B683A685C
:101F30005A607B6800221A727B6800225A727B68A2
:101F400018460C37BD465DF8047B70478C040308C7
:101F500080B483B000AF7860012318460C37BD46CB
:101F60005DF8047B704780B582B000AF78607A6816
:101F70007B681B6828331B681046984700BF0837EA
:101F8000BD4680BD80B400AF034B1B681846BD46FC
:101F90005DF8047B704700BF34AE002480B582B08A
:101FA00000AF78607B685A687B685B681B68143395
:101FB0001B681046984700BF0837BD4680BD80B5F6
:101FC00082B000AF7860FFF7DDFF03461846FFF7E9
:101FD000E5FF00BF0837BD4680BD80B582B000AFC9
:101FE00078607B680C331846FFF730FF7B68184633
:101FF0000837BD4680BD0000B0B582B000AF786044
:102000007A687B680C3319461046FFF787FF0E4A43
:102010007B681A607B6803F10C007B6820336022C8
:10202000194618F0EFFA7B6820335F241D46002C18
:1020300005DB2846FFF7D1FF2035013CF7E77B6839
:1020400018460837BD46B0BD58E4020880B582B0D6
:1020500000AF7860094A7B681A605A20FFF7D2FE09
:102060007B680C33184600F0C7FA7B681846FFF708
:1020700035FF7B6818460837BD4680BD58E4020826
:1020800080B582B000AF78607868FFF7DFFF4FF46B
:102090004261786829F075FE7B6818460837BD46AE
:1020A00080BD000080B584B000AF7860124BD3F8DB
:1020B000D430114A43F01003C2F8D4300E4BD3F899
:1020C000D43003F01003FB60FB680B4BDB6F0A4A54
:1020D00043F01003D367084BDB6F074A23F010036C
:1020E000D367064B064A1A625A20FFF76DFE00BFFF
:1020F0001037BD4680BD00BF0044025878B10024AF
:10210000BF1F000880B584B000AF78600B46FB703D
:102110000023FB60FB780B2B26D801A252F823F09A
:102120005D2100085721000851210008692100089D
:10213000692100086921000869210008632100085D
:10214000632100086321000863210008632100085F
:102150000023FB600EE00123FB600BE00223FB6029
:1021600008E00523FB6005E0054B064A66210648AA
:1021700029F036FEFB6818461037BD4680BD00BF0B
:1021800098D10208B4D1020800D2020880B584B008
:1021900000AF78600B46FB700023FB60FB780A2BD6
:1021A00021D801A252F823F0E1210008DB21000828
:1021B000D5210008E7210008E7210008E7210008F1
:1021C000E7210008DB210008DB210008DB210008F3
:1021D000DB2100080023FB600BE00123FB6008E02B
:1021E0000223FB6005E0054B054A8721054829F0DD
:1021F000F7FDFB6818461037BD4680BD98D1020830
:1022000048D2020800D2020880B483B000AF7860E0
:1022100040F2EF3318460C37BD465DF8047B70473B
:1022200090B589B000AF786039603B685B7F194634
:102230007868FFF767FFB8613B689B7F194678684D
:10224000FFF760FF78613B689B7F19467868FFF76E
:102250009DFF38613B685B8B1A463B689B8AD21AAC
:10226000964B1A643B685B8B1A463B689B8AD21A72
:10227000924B9A613B681B8B1A463B689B8AD21A29
:102280008E4B1A618D4A3B6953633B68DB8A1A4661
:102290003B689B8A1B041A43884B5A643B681A6943
:1022A000864BDA633B685A68844BDA603B681B688C
:1022B000B3F5007F36D0B3F5007F00F2E280B3F5CE
:1022C000807F14D0B3F5807F00F2DB80802B59D063
:1022D000802B00F2D680402B00F0BE80402B00F215
:1022E000D080042B39D0202B00F0B680C9E03B68A9
:1022F0001B7F1B061946714A714B0B43D3613B6828
:102300000C336E4C1846FFF7AFFD034623626B4A51
:102310007B6953623B681A69684B5A61674B694A2B
:102320001A60C7E03B681B7F1B061946634A664B71
:102330000B43D3613B680C33604C1846FFF794FDA8
:10234000034623625D4A7B6953623B681A695B4BB3
:102350005A615A4B5B4A1A60ACE03B681B7F1B0614
:102360001A46BB691343554A43F40033D361534AB9
:102370007B6953623B681A69504B5A614F4B514A13
:102380001A6097E00123FB773B689B68FB60FB6862
:102390001A1D4A4BDA623B681B7F1B061A46BB6953
:1023A0001343464A43F40033D361444A7B69536282
:1023B0003B681A69414B5A61FB681B88DBB2002BF2
:1023C00002D0012B0DD020E03C4BDA693F4B13408B
:1023D000FA685288013A12021146384A0B43D36117
:1023E0001AE03B681B7FFF2B01D10023FB77334BA7
:1023F000DA69364B1340FA685288013A12021343E5
:102400002E4A43F01003D36106E0314B314A40F2CB
:102410001111314829F0E4FC284BDB69274A43F0CD
:102420002003D361254BDB6903F02003002B14BF8D
:1024300001230023DBB2002B00D0F3E71F4B102257
:102440009A60FB7F002B03D01C4B1E4A1A6031E0C0
:102450001A4B224A1A602DE03B681B7F1B061A4666
:10246000BB691343154A43F40033D361134A7B69B4
:1024700053623B681A69114B5A61104B114A1A603A
:1024800018E03B681B7F1B061A46BB6913430B4AC7
:1024900043F40033D3613B685A7F3B689B7F9A4289
:1024A00003D0064B0D4A1A6003E0044B40F20122B0
:1024B0001A6000BF00BF2437BD4690BD0010005217
:1024C0000A0002000102020009000200EF00FFFF03
:1024D00094D20208B0D2020800D202080102010020
:1024E00090B585B000AF786039603B689B7F194636
:1024F0007868FFF74BFEF8603B4AFB6853633B6824
:10250000DB8A1A463B689B8A1B041A43364B5A6483
:102510003B681A69344BDA633B685B8B1A463B684D
:102520009B8AD21A304B1A643B681B68082B2ED149
:102530003B685B8B1A463B689B8AD21A2A4B9A618E
:102540003B685B8B1A463B689B8AD21A264B1A6102
:10255000254AFB6853623B681B7F1B061946224ACB
:10256000224B0B43D3613B680C331F4C1846FFF7DB
:102570007BFC034623623B681A691B4B5A613B682C
:102580001A69194BDA60184B194A1A6027E0164A83
:10259000FB68D361144B00221A613B680C33184668
:1025A000FFF762FC03461B0A03F478443B680C33D4
:1025B0001846FFF759FC03465B0903F4FC631C4310
:1025C0003B680C331846FFF74FFC0346DB0803F06B
:1025D0001F03054A23439363034B064A1A6000BF57
:1025E0001437BD4690BD00BF001000520900010025
:1025F000010202000102030080B582B000AF7860E2
:10260000054A7B681A607B681846FFF739FC7B68CF
:1026100018460837BD4680BDDC04030880B582B08B
:1026200000AF78607868FFF7E7FF1421786829F039
:10263000A8FB7B6818460837BD4680BD80B483B0D0
:1026400000AF78607B6800221A807B6800225A8085
:102650007B6800229A807B680022DA807B681846BB
:102660000C37BD465DF8047B7047000080B483B032
:1026700000AF7860044A7B68136000BF0C37BD462A
:102680005DF8047B704700BF90AE002480B483B037
:1026900000AF7860044A7B681A607B6818460C3784
:1026A000BD465DF8047B7047C4E6020880B582B081
:1026B00000AF78607868FFF7E9FF0421786829F0B7
:1026C00060FB7B6818460837BD4680BD80B485B086
:1026D00000AFF860B9607A603B600B4AFB681A6033
:1026E000FB68BA685A60FB687A689A60FB683A6867
:1026F000DA60FB68BA691A61FB6818461437BD4690
:102700005DF8047B704700BFB4E6020880B483B074
:1027100000AF7860044A7B681A607B6818460C3703
:10272000BD465DF8047B7047B4E6020880B582B010
:1027300000AF78607868FFF7E9FF1421786829F026
:1027400020FB7B6818460837BD4680BD80B483B047
:1027500000AF7860396000BF0C37BD465DF8047B80
:10276000704780B483B000AF7860396000BF0C3729
:10277000BD465DF8047B704780B483B000AF7860DD
:10278000396000BF0C37BD465DF8047B704780B4EC
:1027900083B000AF78600B46FB7000BF0C37BD46BE
:1027A0005DF8047B704780B483B000AF786000BFF1
:1027B0000C37BD465DF8047B704780B483B000AF32
:1027C000786000BF0C37BD465DF8047B70470000A1
:1027D00080B483B000AF7860044A7B681A607B687D
:1027E00018460C37BD465DF8047B70478CE602083E
:1027F00080B582B000AF78607868FFF7E9FF042108
:10280000786829F0BEFA7B6818460837BD4680BD57
:1028100080B483B000AF7860044A7B681A607B683C
:1028200018460C37BD465DF8047B7047780B0308EB
:1028300080B582B000AF78607868FFF7E9FF0821C3
:10284000786829F09EFA7B6818460837BD4680BD37
:1028500080B483B000AF78600B46FB7000BF0C37CC
:10286000BD465DF8047B704780B483B000AF7860EC
:1028700039607B683A6803F596731068516803C342
:1028800000BF0C37BD465DF8047B704780B483B051
:1028900000AF7860044A7B681A607B6818460C3782
:1028A000BD465DF8047B704774E6020880B582B0CF
:1028B00000AF78607868FFF7E9FF0421786829F0B5
:1028C00060FA7B6818460837BD4680BD80B483B087
:1028D00000AF78607B6800221A807B6800225A80F3
:1028E0007B6800229A807B680022DA807B68002265
:1028F0001A817B6800225A817B6800229A817B685A
:1029000000229A737B6818460C37BD465DF8047B3D
:10291000704780B582B000AF78607B681846FFF7DB
:10292000D5FF7B6800221A617B6800229A827B684F
:1029300018460837BD4680BD80B584B000AFF8604A
:10294000B9607A603B60554AFB681A60FB68BA68F8
:102950005A60FB687A689A60FB683A68DA60FB68DC
:1029600000221A61FB6800225A61FB6800229A610A
:10297000FB681C331846FFF7CCFFFB68002283F886
:102980003420FB6800229A63FB680022DA63FB684C
:1029900000221A64FB6800225A64FB68002283F854
:1029A0004820FB68012283F84920FB68002283F855
:1029B0004A20FB68002283F84B20FB680022DA647F
:1029C000FB6850331846FFF739FEFB6800229A6512
:1029D000FB680022DA65FB6800221A66FB680122A8
:1029E00083F86420FB68002283F86520FB680022DE
:1029F00083F86620FB68012283F86720FB680022C9
:102A000083F86820FB68002283F86920FB680022B5
:102A100083F86A20FB68002283F86B20FB680022A1
:102A200083F86C20FB6800221A67FB68002283F899
:102A30007420FB68002283F87520FB68002283F86D
:102A40007620FB68012283F87720FB68012283F857
:102A50007820134AFB681360124A3B8B1380114B9A
:102A60001A88114B1A80114ABB8B13800F4B1A889E
:102A70000F4B1A800F4B00221A703A8BBB8B9A4275
:102A800034BF01230023DBB21A46FB6883F83420ED
:102A9000FB6818461037BD4680BD00BF34FF0208F2
:102AA00034AE002428AE00242EAE00242AAE00242A
:102AB00030AE00242CAE002480B582B000AF786028
:102AC000054A7B681A607B681846FFF781FE7B68C1
:102AD00018460837BD4680BD8C0C030880B582B00F
:102AE00000AF78607868FFF7E7FF4FF49C71786873
:102AF00029F047F97B6818460837BD4680BD80B588
:102B000082B000AF7860786800F004F800BF083742
:102B1000BD4680BD80B582B000AF78607B68D3F8D9
:102B20003C31002B0FD07B68D3F83C217B68D3F875
:102B30003C311B680C331B68104698470346002B3A
:102B400001D0012300E00023002B0ED07B68D3F8D6
:102B50003C217B68D3F83C311B6808331B68104666
:102B600098477B680022C3F83C2100BF0837BD4668
:102B700080BD000080B582B000AF7860054A7B68F8
:102B80001A607B681846FFF797FF7B68184608377E
:102B9000BD4680BD30E6020880B582B000AF7860E7
:102BA0007868FFF7E7FF4FF4A071786829F0E9F83B
:102BB0007B6818460837BD4680BD000080B582B0EE
:102BC00000AF7860084A7B681A607B6803F5A073E1
:102BD000184600F0E9FA7B681846FFF7CBFF7B68E0
:102BE00018460837BD4680BDD4E5020880B582B0DE
:102BF00000AF78607868FFF7E1FF4FF4AC71786858
:102C000029F0BFF87B6818460837BD4680BD000034
:102C100080B582B000AF7860054A7B681A607B6837
:102C20001846FFF7CBFF7B6818460837BD4680BDC6
:102C300090E5020880B582B000AF78607868FFF751
:102C4000E7FF4FF4AC71786829F09BF87B68184671
:102C50000837BD4680BD80B582B000AF78607B6824
:102C6000D3F85431184609F008FA7B68184619F071
:102C7000D3FE00BF0837BD4680BD80B582B000AF2F
:102C8000786039603B68184602F01EFD00BF0837C7
:102C9000BD4680BD80B586B002AFF860B9607A608D
:102CA0003B60F868BB6900933B687A68B968FFF7D6
:102CB0000DFD044AFB681A60FB6818461037BD46D4
:102CC00080BD00BF7CE5020880B500AF014800F080
:102CD0005FF980BD6C01002480B500AF124B1B78FA
:102CE000BFF35B8FDBB203F00103002B0CBF0123AA
:102CF0000023DBB2002B13D00B4829F044F8034625
:102D0000002B14BF01230023DBB2002B08D007489F
:102D100000F068F8044829F042F8054829F07EF8E8
:102D2000024B184680BD00BFBC0700246C01002484
:102D3000C92C000880B582B000AF7860054A7B6876
:102D40001A607B681846FFF7E1FC7B681846083775
:102D5000BD4680BD7CE5020880B582B000AF7860DA
:102D60007868FFF7E7FF1421786829F00AF87B6894
:102D700018460837BD4680BD80B582B000AF786088
:102D80007B68184615F0D2FF034A7B681A607B689F
:102D900018460837BD4680BD48E5020880B582B0B8
:102DA00000AF78607B68184615F0C0FF034A7B6867
:102DB0001A607B6818460837BD4680BD14E50208D6
:102DC00080B582B000AF78607B68184615F0AEFF22
:102DD000034A7B681A607B6818460837BD4680BD89
:102DE000E0E4020890B585B002AF786078687B684F
:102DF00003F114017B6803F12C027B6803F59264F4
:102E00007B6803F59F6300932346FFF743FF184A4F
:102E10007B681A607B6814331846FFF7ADFF7B6848
:102E20002C331846FFF7BAFF7B6803F59263184608
:102E3000FFF7C6FF7B6803F2E443184609F0F4F895
:102E40007B6803F59F607B6803F2E4437A68194668
:102E500008F0D2FE7A687B6803F59F631946104636
:102E6000FFF70BFF7B6818460C37BD4690BD00BFCF
:102E7000CCE4020880B586B002AFF860B9607A6031
:102E80003B60F868BB8B01933B8B00933B687A688F
:102E9000B968FFF751FD044AFB681A60FB681846E1
:102EA0001037BD4680BD00BFD8E6020880B586B0A9
:102EB00002AFF860B9607A603B60F868BB8B019341
:102EC0003B8B00933B687A68B968FFF7D3FF044AED
:102ED000FB681A60FB6818461037BD4680BD00BF0E
:102EE00088E3020880B483B000AF7860044A7B684E
:102EF0001A607B6818460C37BD465DF8047B704746
:102F000070E3020880B582B000AF78607B68184635
:102F1000FFF7E8FF034A7B681A607B6818460837AA
:102F2000BD4680BD58E3020890B585B002AF00F001
:102F30004FFD044600F056FD03461946002300935A
:102F40000023002220461CF0C5FE0948FFF78EFB37
:102F5000002007F0F1FE07481CF0FEFDFFF7BCFE65
:102F600078600548FEF7B8FD00BF0C37BD4690BD40
:102F70005C140024080000246014002480B500AF15
:102F8000024816F0F6FB00BF80BD00BF60140024AD
:102F900080B582B000AF7860104A7B681A607B68A9
:102FA00003F59F631846FFF733FE7B6803F59263D2
:102FB000184600F027F87B682C33184600F044F8D8
:102FC0007B681433184600F063F87B681846FFF7F7
:102FD000B1FE7B6818460837BD4680BDCCE40208C8
:102FE00080B582B000AF78607868FFF7D1FF4FF40A
:102FF000CA61786828F0C5FE7B6818460837BD4668
:1030000080BD000080B582B000AF7860054A7B6863
:103010001A607B68184615F087FE7B6818460837EB
:10302000BD4680BDE0E4020880B582B000AF7860A4
:103030007868FFF7E7FF5421786828F0A2FE7B68E4
:1030400018460837BD4680BD80B582B000AF7860B5
:10305000054A7B681A607B68184615F065FE7B6838
:1030600018460837BD4680BD14E5020880B582B019
:1030700000AF78607868FFF7E7FF40F26441786856
:1030800028F07FFE7B6818460837BD4680BD0000EB
:1030900080B582B000AF7860054A7B681A607B68B3
:1030A000184615F041FE7B6818460837BD4680BDBE
:1030B00048E5020880B582B000AF78607868FFF715
:1030C000E7FF1821786828F05CFE7B68184608370F
:1030D000BD4680BD80B582B000AF7860054A7B6890
:1030E0001A607B681846FFF793FB7B681846083721
:1030F000BD4680BD1C1E030880B582B000AF78605D
:103100007868FFF7E7FF7821786828F03AFE7B6857
:1031100018460837BD4680BD80B584B002AF7860E0
:1031200039607B68012B19D13B684FF6FF729342DF
:1031300014D11848FFF7E6FE1748FEF75DFF174861
:103140001FF090FE4FF4887301934FF4F0730093D7
:10315000104B124A10491248FFF7A8FE7B68002B5B
:1031600013D13B684FF6FF7293420ED10C48FEF725
:103170002BFD0C4800F03AF80848FFF7ABFF064873
:10318000FEF764FF0348FEF7ADFA00BF0837BD46FF
:1031900080BD00BFC0070024C4070024E41300243E
:1031A000601400240800002480B582B000AF78606D
:1031B000054A7B681A607B681846FFF767FB7B68E7
:1031C00018460837BD4680BD18E6020880B582B0B3
:1031D00000AF78607868FFF7E7FF1021786828F083
:1031E000D0FD7B6818460837BD4680BD80B582B0EB
:1031F00000AF7860054A7B681A607B681846FFF765
:1032000045FA7B6818460837BD4680BDA8E7020826
:1032100080B582B000AF78607868FFF7E7FF0421DF
:10322000786828F0AEFD7B6818460837BD4680BD3B
:1032300080B483B000AF7860012318460C37BD46D8
:103240005DF8047B704780B483B000AF78604C2396
:1032500018460C37BD465DF8047B704780B483B0D8
:1032600000AF78600B467B807B884C2202FB03F327
:1032700008337A68134418460C37BD465DF8047B62
:10328000704780B483B000AF78600B467B807B884A
:103290004C2202FB03F308337A68134418460C37B8
:1032A000BD465DF8047B704780B483B000AF7860A2
:1032B000012318460C37BD465DF8047B704780B487
:1032C00083B000AF786040F25C4318460C37BD46CF
:1032D0005DF8047B704780B483B000AF78600B4624
:1032E0007B807B8840F25C4202FB03F308337A6800
:1032F000134418460C37BD465DF8047B704780B414
:1033000083B000AF78600B467B807B8840F25C42E4
:1033100002FB03F308337A68134418460C37BD46A2
:103320005DF8047B704780B483B000AF7860012300
:1033300018460C37BD465DF8047B704780B483B0F7
:1033400000AF7860102318460C37BD465DF8047B4B
:10335000704780B483B000AF78600B467B807B8879
:103360001B0108337A68134418460C37BD465DF8D4
:10337000047B704780B483B000AF78600B467B80DD
:103380007B881B0108337A68134418460C37BD4606
:103390005DF8047B704780B582B000AF78607B68D1
:1033A0005B687A68D268521099187B68DB6803F012
:1033B0000103002B02D17B689B680AE07B685B6895
:1033C0007A68D268521013441B687A689268134472
:1033D0001B680846984700BF0837BD4680BD80B4CB
:1033E00083B000AF78607B685B68002B10D07B688F
:1033F0009B68002B07D17B68DB6803F00103002B7F
:1034000001D1012300E00023012B01D0012300E0C2
:10341000002318460C37BD465DF8047B704780B525
:1034200000AF4FF6FF710120FFF776FE80BD80B53B
:1034300000AF4FF6FF710020FFF76EFE80BD80B534
:1034400082B000AF78607B681B6820331B687868A7
:10345000984700BF0837BD4680BD80B483B000AF39
:1034600078607B6893F866300133DAB27B6883F862
:10347000662000BF0C37BD465DF8047B7047000036
:1034800080B483B000AF0346FB80B7F90630002B51
:103490000BDBFB8803F01F020749B7F906305B0915
:1034A000012000FA02F241F8232000BF0C37BD468C
:1034B0005DF8047B704700BF00E100E080B483B09A
:1034C00000AF0346FB80B7F90630002B12DBFB8808
:1034D00003F01F020A49B7F906305B09012000FA20
:1034E00002F2203341F82320BFF34F8F00BFBFF318
:1034F0006F8F00BF00BF0C37BD465DF8047B70477F
:1035000000E100E080B483B000AF03463960FB8087
:10351000B7F90630002B0ADB3B68DAB20C49B7F981
:1035200006301201D2B20B4483F800230AE03B6854
:10353000DAB20849FB8803F00F03043B1201D2B250
:103540000B441A7600BF0C37BD465DF8047B70470C
:1035500000E100E000ED00E0B0B582B000AF7860BF
:103560007B68184616F0F3F87D687B681B6860334B
:103570001C6819F07DFB034619462846A047786869
:103580007B681B6884331C680023044A4FF0504159
:10359000A04700BF0837BD46B0BD00BF000020D027
:1035A00080B582B000AF786009215A20FFF7AAFFEA
:1035B00009215820FFF7A6FF00BF0837BD4680BD90
:1035C00080B582B000AF78605A20FFF759FF5820CD
:1035D000FFF756FF00BF0837BD4680BD80B582B0FB
:1035E00000AF78605A20FFF769FF5820FFF766FFA9
:1035F00000BF0837BD4680BD80B483B000AF78609F
:10360000114BDB689BB2C3F30A039BB2013B9AB236
:103610000E4B1A800C4B1B699BB2C3F30A039BB27F
:10362000013B9AB20A4B1A80084B1A88064B1A645F
:10363000054B5B6B044A43F00103536300BF0C3737
:10364000BD465DF8047B704700100050DC14002478
:10365000DE14002480B582B000AF78607B68184625
:1036600016F05CF8034618460837BD4680BD80B5A5
:1036700082B000AF78607B68184616F05BF800BF38
:103680000837BD4680BD000080B483B000AF7860CD
:10369000034B9B6A18460C37BD465DF8047B7047A8
:1036A0008410005080B483B000AF78603960064A5F
:1036B0003B689362054B01225A6200BF0C37BD463E
:1036C0005DF8047B704700BF84100050001000506C
:1036D00080B586B000AF786039607B68396818467D
:1036E00015F0E6FF254B5B6903F48033002B14BF14
:1036F00001230023DBB2002B3CD0204B0022C3F877
:103700008420BFF34F8F00BF1C4BD3F880307B6108
:103710007B695B0BC3F30E033B617B69DB08C3F37F
:103720000903FB603B695A0143F6E0731340FA68F2
:10373000920712491343C1F87432FB685A1EFA60AB
:10374000002B14BF01230023DBB2002B00D0E9E7DC
:103750003B695A1E3A61002B14BF01230023DBB2E0
:10376000002B00D0D9E7BFF34F8F00BFBFF36F8F9F
:1037700000BF00BF00BF1837BD4680BD00ED00E0B0
:1037800080B584B000AFF860B9607A603B60F868DB
:103790003B687A68B96816F0F6F8034618461037A1
:1037A000BD4680BD80B487B000AF7860264B5B69B2
:1037B00003F48033002B14BF01230023DBB2002B62
:1037C0003CD0214B0022C3F88420BFF34F8F00BFB1
:1037D0001D4BD3F880307B617B695B0BC3F30E0319
:1037E0003B617B69DB08C3F30903FB603B695A015A
:1037F00043F6E0731340FA68920713491343C1F884
:103800007432FB685A1EFA60002B14BF0123002398
:10381000DBB2002B00D0E9E73B695A1E3A61002B6E
:1038200014BF01230023DBB2002B00D0D9E7BFF384
:103830004F8F00BFBFF36F8F00BF00BF00BF1C37AB
:10384000BD465DF8047B704700ED00E080B487B0B2
:1038500000AF7860264B5B6903F48033002B14BF04
:1038600001230023DBB2002B3CD0214B0022C3F804
:103870008420BFF34F8F00BF1D4BD3F880307B6196
:103880007B695B0BC3F30E033B617B69DB08C3F30E
:103890000903FB603B695A0143F6E0731340FA6881
:1038A000920713491343C1F87432FB685A1EFA6039
:1038B000002B14BF01230023DBB2002B00D0E9E76B
:1038C0003B695A1E3A61002B14BF01230023DBB26F
:1038D000002B00D0D9E7BFF34F8F00BFBFF36F8F2E
:1038E00000BF00BF00BF1C37BD465DF8047B7047BA
:1038F00000ED00E080B582B000AF78601A4B1B6C21
:103900001A4A128893420CBF01230023DBB2002B1A
:1039100017D0174B1B881946786811F055F9FEF738
:1039200031FB03461846FFF798FDFEF725FAFEF730
:1039300029FB0346184616F0FFFC0020FDF7F4FEB5
:103940000EE00A4B1B881946786811F03DF90020FB
:10395000FDF706FFFEF716FB03461846FFF76FFD5F
:1039600000BF0837BD4680BD00100050DC140024A5
:10397000DE14002480B582B000AF78600B467B80F7
:103980007B88032B1ED801A252F823F09D39000832
:10399000A7390008B1390008BB39000807F044FA1C
:1039A00003461B680FE007F03FFA03465B680AE036
:1039B00007F03AFA03469B6805E007F035FA03463C
:1039C000DB6800E0002318460837BD4680BD00BF15
:1039D00080B400AF024B1846BD465DF8047B7047CB
:1039E000B4E7020880B400AF14231846BD465DF862
:1039F000047B704780B483B000AF786039607B6827
:103A00003A681A607B6818460C37BD465DF8047B3F
:103A1000704780B483B000AF78600B467B807B68D2
:103A20007A881A807B6818460C37BD465DF8047B9F
:103A30007047000080B582B000AF7860144A7B68A0
:103A40001A607B6804331846FEF7F8FD7B680C3378
:103A50001846FEF7F3FD7B6800225A617B6800225E
:103A60009A617B680022DA617B6800221A847B6895
:103A700000225A847B68002283F824207B6801227C
:103A800083F825207B6818460837BD4680BD00BFF7
:103A9000EC0E030880B483B000AF7860044A7B6802
:103AA0001A607B6818460C37BD465DF8047B70478A
:103AB000EC0E030880B582B000AF78607868FFF73D
:103AC000E9FF2821786828F05CF97B6818460837F8
:103AD000BD4680BD80B483B000AF78600023184637
:103AE0000C37BD465DF8047B704780B584B000AFED
:103AF000F860084611461A4603467B810B463B8117
:103B00001346FB80B7F90820B7F90A301946F86860
:103B100000F02AF8B7F91820B7F906301946F86806
:103B200000F07EF800BF1037BD4680BD80B483B082
:103B300000AF78600B467B807B687A889A8000BFF4
:103B40000C37BD465DF8047B704780B483B000AF8E
:103B500078600B467B807B687A88DA8000BF0C3700
:103B6000BD465DF8047B704780B582B000AF7860D9
:103B70000B467B8013463B807B681B682C331B689D
:103B8000B7F902201146786898477B681B68303384
:103B90001B68B7F9002011467868984700BF0837BE
:103BA000BD4680BD80B483B000AF78600B467B809B
:103BB0007B687A881A8100BF0C37BD465DF8047BAC
:103BC000704780B483B000AF78600B467B807B6821
:103BD0007A885A8100BF0C37BD465DF8047B704778
:103BE00080B483B000AF786000BF0C37BD465DF88D
:103BF000047B704780B483B000AF7860396000BF49
:103C00000C37BD465DF8047B704780B483B000AFCD
:103C10007860396000BF0C37BD465DF8047B7047A3
:103C200080B582B000AF78600B467B8013463B8046
:103C30007B681B6834331B68B7F90220114678682B
:103C400098477B681B6838331B68B7F9002011461A
:103C50007868984700BF0837BD4680BD80B483B000
:103C600000AF7860396000BF0C37BD465DF8047B5B
:103C7000704780B483B000AF786000BF0C37BD469A
:103C80005DF8047B704780B483B000AF78607B68D8
:103C900093F8253018460C37BD465DF8047B704715
:103CA00080B483B000AF78607B6893F82430184606
:103CB0000C37BD465DF8047B704780B582B000AF1D
:103CC00078600B467B8013463B807B681B685033D3
:103CD0001B6879887A68B2F9042092B28A1A92B283
:103CE00010B239887A68B2F9062092B28A1A92B272
:103CF00012B201467868984700BF0837BD4680BDBC
:103D000080B483B000AF78607B684FF6FF729A8111
:103D10007B684FF6FF721A847B684FF6FF725A84F5
:103D200000BF0C37BD465DF8047B704780B584B09A
:103D300000AFF860B9607A60F868FFF7E1FF7B6870
:103D40001A68FB68DA617B68FA681A6000BF10378E
:103D5000BD4680BD80B582B000AF7860064A7B6802
:103D60001A607B680433184601F0DEF87B68184659
:103D70000837BD4680BD00BFE40F030880B582B0A0
:103D800000AF78607868FFF7E5FF3C21786827F09E
:103D9000F8FF7B6818460837BD4680BD80B483B005
:103DA00000AF786000BF0C37BD465DF8047B7047FC
:103DB00080B483B000AF786000BF0C37BD465DF8BB
:103DC000047B704780B483B000AF786000BF0C37CD
:103DD000BD465DF8047B704780B483B000AF786067
:103DE00000BF0C37BD465DF8047B704780B483B0DC
:103DF00000AF78600B46FB7000BF0C37BD465DF826
:103E0000047B704780B582B000AF786039607B6812
:103E100004333968184615F0F1F900BF0837BD467C
:103E200080BD80B584B000AFF8607B600B467B81BD
:103E300013463B81FB681846FFF725FF0346002B1E
:103E400008D0FB681846FFF72BFF0346002B01D074
:103E5000012300E00023002B02D0FA687B681A607F
:103E600000BF1037BD4680BD80B582B000AF78601E
:103E70007B681846FFF7DEFD034A7B681A607B68A3
:103E800018460837BD4680BD14EA020880B582B0E6
:103E900000AF7860054A7B681A607B681846FFF7B8
:103EA000F9FD7B6818460837BD4680BD14EA020854
:103EB00080B582B000AF78607868FFF7E7FF28210F
:103EC000786827F05EFF7B6818460837BD4680BDDE
:103ED00080B582B000AF78607B68184626231A460A
:103EE000002128F009F87B681846FFF7BDFF094A52
:103EF0007B681A607B68FF2283F826207B68283362
:103F000000211846FFF776FD7B6818460837BD4646
:103F100080BD00BF3407030880B483B000AF786071
:103F200039607B683A689A6200BF0C37BD465DF81D
:103F3000047B704780B582B000AF786039607B68E1
:103F4000184626231A46002127F0D6FF7B6818461C
:103F5000FFF78AFF094A7B681A607B683A68128813
:103F6000DA847B68FF2283F828203968786817F0A4
:103F700079F87B6818460837BD4680BD700A03088B
:103F800080B483B000AF78600B467B80064A7B68C4
:103F90001A607B687A889A807B6818460C37BD4621
:103FA0005DF8047B704700BF04EA020880B483B068
:103FB00000AF7860044A7B681A607B6818460C374B
:103FC000BD465DF8047B704704EA020880B582B004
:103FD00000AF78607868FFF7E9FF0821786827F07C
:103FE000D0FE7B6818460837BD4680BD80B582B0DC
:103FF00000AF78607B68184626231A46002127F018
:104000007BFF7B681846FFF72FFF144A7B681A6016
:104010007B6828334FF6FF711846FFF7B1FF7B68C6
:10402000303300211846FFF7E5FC7B6800229A86B2
:104030007B68FF2283F836207B68002283F83720D4
:104040007B68002283F838207B68002283F83920BF
:104050007B6818460837BD4680BD00BF8C06030844
:1040600080B582B000AF7860084A7B681A607B68D0
:1040700028331846FFF79AFF7B681846FFF706FFBC
:104080007B6818460837BD4680BD00BF8C06030814
:1040900080B582B000AF78607868FFF7E1FF3C211F
:1040A000786827F06EFE7B6818460837BD4680BDED
:1040B00080B483B000AF78600B46FB707B68FA7801
:1040C00083F82F2000BF0C37BD465DF8047B704796
:1040D00080B483B000AF786039607B683A689A62D8
:1040E00000BF0C37BD465DF8047B704780B582B0D9
:1040F00000AF7860054A7B681A607B681846FFF756
:10410000C5FE7B6818460837BD4680BDB00503086C
:1041100080B582B000AF78607868FFF7E7FF3021A4
:10412000786827F02EFE7B6818460837BD4680BDAC
:1041300080B483B000AF78600B467B807B687A8860
:104140001A8700BF0C37BD465DF8047B704780B40A
:1041500083B000AF78600B467B807B687A885A8793
:1041600000BF0C37BD465DF8047B704780B582B058
:1041700000AF78600B467B8013463B80B7F9023076
:1041800019467868FFF7D4FFB7F900301946786808
:10419000FFF7DDFF00BF0837BD4680BD80B582B0A8
:1041A00000AF7860054A7B681A607B681846FFF7A5
:1041B000D1FD7B6818460837BD4680BDB8E90208C6
:1041C00080B582B000AF78607868FFF7E7FF4021E4
:1041D000786827F0D6FD7B6818460837BD4680BD55
:1041E00080B582B000AF78603C4A7B681A607B681B
:1041F00003F58963184600F075FE7B6803F21C43E3
:10420000184600F0D5FE7B6803F57873184600F079
:10421000A1FF7B6803F56D73184600F0C9FE7B684B
:1042200003F55E73184600F095FF7B6803F5537342
:10423000184600F0BDFE7B6803F54473184600F095
:1042400089FF7B6803F53973184600F0B1FE7B687F
:1042500003F52A73184600F07DFF7B6803F51F7392
:10426000184600F0A5FE7B6803F51473184600F0AD
:104270009FFE7B6803F50573184600F06BFF7B68B3
:1042800003F5EC73184600F065FF7B6803F5CE7309
:10429000184600F03DFF7B6803F5B073184600F048
:1042A00037FF7B68D433184600F0E8FE7B6898330C
:1042B0001846FFF7D5FE7B686C33184600F078FE91
:1042C0007B684033184600F051FE7B681846FFF7C4
:1042D00065FF7B6818460837BD4680BD4CE902087B
:1042E00080B582B000AF78607868FFF779FF4FF44F
:1042F0008B61786827F045FD7B6818460837BD4616
:1043000080BD80B483B000AF786000BF0C37BD467D
:104310005DF8047B704780B483B000AF786000BF65
:104320000C37BD465DF8047B704780B483B000AFA6
:10433000786000BF0C37BD465DF8047B704780B4E1
:1043400083B000AF786000BF0C37BD465DF8047BDA
:10435000704780B483B000AF786000BF0C37BD46B3
:104360005DF8047B704780B483B000AF786000BF15
:104370000C37BD465DF8047B704780B483B000AF56
:10438000786000BF0C37BD465DF8047B704780B491
:1043900083B000AF786000BF0C37BD465DF8047B8A
:1043A000704780B582B000AF786018F061FC0346BA
:1043B00018460837BD4680BD90B5B7B002AF7860EB
:1043C0007B68184600F028FDE54A7B681A607B6828
:1043D00040331846FFF77CFD7B6803F16C0407F15E
:1043E0000C034FF6FF711846FFF713FB07F10C03A0
:1043F00019462046FFF79EFD7B6898331846FFF765
:10440000F5FD7B68D433184614F0E0FD7B6803F5B6
:10441000B073184616F000FE7B6803F5CE7318469D
:1044200016F0FAFD7B6803F5EC73184616F02AFDCA
:104430007B6803F50573184616F024FD7B6803F5C9
:10444000147407F110034FF6FF711846FFF7E1FAF5
:1044500007F1100319462046FFF76CFD7B6803F552
:104460001F7407F114034FF6FF711846FFF7D1FAD6
:1044700007F1140319462046FFF75CFD7B6803F53E
:104480002A73184616F0FEFC7B6803F5397407F1B1
:1044900018034FF6FF711846FFF7BBFA07F1180330
:1044A00019462046FFF746FD7B6803F5447318461E
:1044B00016F0E8FC7B6803F5537407F11C034FF614
:1044C000FF711846FFF7A5FA07F11C0319462046AD
:1044D000FFF730FD7B6803F55E73184616F0D2FCDB
:1044E0007B6803F56D7407F120034FF6FF711846E2
:1044F000FFF78FFA07F1200319462046FFF71AFD50
:104500007B6803F57873184616F0BCFC7B6803F2F1
:104510001C4407F124034FF6FF711846FFF779FAA0
:1045200007F1240319462046FFF704FD7B6803F5D5
:1045300089608C4BBB620023FB6207F128030CCB24
:10454000796800F08FFC7B6803F140004FF48873BA
:1045500000934FF4F07300220021FFF7C6FA7B6846
:1045600003F14004002387F8BC30002387F8BB30F8
:10457000002387F8BA3097F8BC301B041A4697F826
:10458000BB301B021A4397F8BA30134343F07F4203
:1045900007F1B40311461846FFF72CFAD7F8B430E8
:1045A00019462046FFF7B8FC7B686C336FF00F02AA
:1045B0006FF010011846FFF7D7FA7B6803F16C041F
:1045C00007F1300300211846FFF723FA07F1300303
:1045D0001946204616F046FD7B6898331422C12107
:1045E0001846FFF7C1FA7B6803F19804FF2387F8A8
:1045F000BF30FF2387F8BE30FF2387F8BD3097F820
:10460000BF301B041A4697F8BE301B021A4397F8B6
:10461000BD30134343F07F4207F1B0031146184603
:10462000FFF7E8F9D7F8B030C7F8C040BB60D7F85B
:10463000C030BA681A6300BF7B689833C7F8C830C7
:104640000023A7F8C630D7F8C830B7F8C6209A8636
:1046500000BF7B6803F1980407F134030B2118466F
:10466000FFF78EFC07F134031946204616F01DFAB9
:1046700007F134031846FFF799FC7B6803F1D40077
:1046800033230093D9237A222A21FFF72EFA7B685D
:1046900003F1D404C92387F8CF30C92387F8CE307B
:1046A000FF2387F8CD3097F8CF301B041A4697F8D0
:1046B000CE301B021A4397F8CD30134343F07F42AC
:1046C00007F1AC0311461846FFF794F9D7F8AC3060
:1046D0001946204614F045FB7B6803F1D40407F12A
:1046E0003C030C211846FFF74BFC07F13C0319462D
:1046F000204614F07BFB07F13C031846FFF756FCFD
:104700007B68D4330121184614F0A6FC7B68D433AF
:1047100003211846FFF7CCFC7B6803F1D40000238B
:104720000022002114F09BFC7B6803F5B073452246
:1047300040F26D111846FFF717FA7B6803F5B07465
:1047400007F1440305211846FFF763F907F1480311
:1047500006211846FFF75DF907F14C030C2103E031
:104760004CE902081D4D00081846FFF752F907F101
:1047700050030C211846FFF74CF907F14C0007F1E4
:10478000480207F1440107F1500300930346204615
:1047900016F09EFB7B6803F5B073062207211846CE
:1047A000FFF7E4FC7B6803F5B0727B6803F589636F
:1047B00019461046FFF78CFC7B6803F5CE738F22F9
:1047C00040F26D111846FFF7CFF97B6803F5CE7400
:1047D00007F1540305211846FFF71BF907F15803A9
:1047E00006211846FFF715F907F15C030E2118465C
:1047F000FFF70FF907F160030E211846FFF709F9DB
:1048000007F15C0007F1580207F1540107F160035A
:1048100000930346204616F05BFB7B6803F5CE73DE
:10482000062207211846FFF7A1FC7B6803F5CE722C
:104830007B6803F5896319461046FFF749FC7B68DE
:1048400003F5EC734622B0211846FFF78DF97B681B
:1048500003F5EC7407F1640309211846FFF7D9F852
:1048600007F168030A211846FFF7D3F807F1680239
:1048700007F164031946204616F04EF97B6803F5EC
:10488000EC731E21184616F0B9FA7B6803F5EC7339
:104890000621184616F0B7FA7B6803F5EC727B68C0
:1048A00003F5896319461046FFF712FC7B6803F590
:1048B0000573AD22B0211846FFF756F97B6803F562
:1048C000057407F16C0309211846FFF7A2F807F1F8
:1048D00070030A211846FFF79CF807F1700207F1F0
:1048E0006C031946204616F017F97B6803F505732B
:1048F0001E21184616F082FA7B6803F5057306211F
:10490000184616F080FA7B6803F505727B6803F59C
:10491000896319461046FFF7DBFB7B6803F51473C8
:104920004C22B7211846FFF71FF97B6803F5147472
:1049300007F174030B211846FFF76BF807F17403B6
:104940001946204616F08EFB7B6803F51F73B422D0
:10495000B7211846FFF708F97B6803F51F7407F1C4
:10496000780310211846FFF754F807F17803194629
:10497000204616F077FB7B6803F52A73AD226B2186
:104980001846FFF7F1F87B6803F52A7407F17C03FA
:1049900009211846FFF73DF807F180030A21184660
:1049A000FFF737F807F1800207F17C03194620462C
:1049B00016F0B2F87B6803F52A731E21184616F02C
:1049C0001DFA7B6803F52A730621184616F01BFAB8
:1049D0007B6803F52A727B6803F5896319461046E4
:1049E000FFF776FB7B6803F53973B4227221184612
:1049F000FFF7BAF87B6803F5397407F184031021D7
:104A00001846FFF706F807F184031946204616F00A
:104A100029FB7B6803F54473AD2226211846FFF776
:104A2000A3F87B6803F5447407F18803092118464D
:104A3000FEF7EFFF07F18C030A211846FEF7E9FFA6
:104A400007F18C0207F188031946204616F064F836
:104A50007B6803F544731E21184616F0CFF97B6876
:104A600003F544730621184616F0CDF97B6803F56B
:104A700044727B6803F5896319461046FFF728FBEB
:104A80007B6803F55373B4222D211846FFF76CF8A9
:104A90007B6803F5537407F1900310211846FEF765
:104AA000B8FF07F190031946204616F0DBFA7B6841
:104AB00003F55E7345226B211846FFF755F87B68B6
:104AC00003F55E7407F1940309211846FEF7A1FF70
:104AD00007F198030A211846FEF79BFF07F1980299
:104AE00007F194031946204616F016F87B6803F583
:104AF0005E731E21184616F081F97B6803F55E731C
:104B00000621184616F07FF97B6803F55E727B6814
:104B100003F5896319461046FFF7DAFA7B6803F557
:104B20006D734B2272211846FFF71EF87B6803F560
:104B30006D7407F19C030B211846FEF76AFF07F11D
:104B40009C031946204616F08DFA7B6803F57873AE
:104B5000462226211846FFF707F87B6803F578748C
:104B600007F1A00309211846FEF753FF07F1A4033C
:104B70000A211846FEF74DFF07F1A40207F1A00332
:104B80001946204615F0C8FF7B6803F578731E218F
:104B9000184616F033F97B6803F57873062118463A
:104BA00016F031F97B6803F578727B6803F5896349
:104BB00019461046FFF78CFA7B6803F21C434C221F
:104BC0002D211846FEF7D0FF7B6803F21C4407F145
:104BD000A8030B211846FEF71CFF07F1A80319468E
:104BE000204616F03FFA7A687B6840331946104633
:104BF000FFF708F97A687B686C3319461046FFF7AF
:104C000001F97A687B68983319461046FFF7FAF87D
:104C10007A687B68D43319461046FFF7F3F87A6850
:104C20007B6803F5B07319461046FFF7EBF87A6816
:104C30007B6803F5CE7319461046FFF7E3F87A68F0
:104C40007B6803F5EC7319461046FFF7DBF87A68CA
:104C50007B6803F5057319461046FFF7D3F87A68A9
:104C60007B6803F5147319461046FFF7CBF87A6892
:104C70007B6803F51F7319461046FFF7C3F87A687F
:104C80007B6803F52A7319461046FFF7BBF87A686C
:104C90007B6803F5397319461046FFF7B3F87A6855
:104CA0007B6803F5447319461046FFF7ABF87A6842
:104CB0007B6803F5537319461046FFF7A3F87A682B
:104CC0007B6803F55E7319461046FFF79BF87A6818
:104CD0007B6803F56D7319461046FFF793F87A6801
:104CE0007B6803F5787319461046FFF78BF87A68EE
:104CF0007B6803F21C4319461046FFF783F87B6874
:104D00001846D437BD4690BD80B483B000AF7860FC
:104D100000BF0C37BD465DF8047B704780B582B09C
:104D200000AF786039607B6803F5B0733A689A42E7
:104D30000DD17B681B682C331B68786898477868AE
:104D4000FFF72FFB0346184600F004FD60E07B6888
:104D500003F5CE733A689A420DD17B681B683033F5
:104D60001B68786898477868FFF71BFB034618466E
:104D700000F0F0FC4CE07B6803F5EC733A689A4273
:104D800006D17B681B683C331B68786898473FE016
:104D90007B6803F505733A689A4206D17B681B6805
:104DA00048331B687868984732E07B6803F52A73BC
:104DB0003A689A4206D17B681B6844331B6878685E
:104DC000984725E07B6803F544733A689A4206D118
:104DD0007B681B6840331B687868984718E07B68DD
:104DE00003F55E733A689A4206D17B681B683833D4
:104DF0001B68786898470BE07B6803F578733A681E
:104E00009A4205D17B681B6834331B6878689847E1
:104E100000BF0837BD4680BD80B582B000AF786066
:104E20007B68184619F084F9054A7B681A607B682C
:104E30000022DA637B6818460837BD4680BD00BF94
:104E4000B8E9020880B483B000AF7860044A7B6898
:104E50001A607B6818460C37BD465DF8047B7047C6
:104E6000ECE9020880B584B000AFF860B96039465B
:104E700081E80C00FB681846FFF7E4FF084AFB686E
:104E80001A60FB68BA685A60FB6808333A4692E8D1
:104E9000030083E80300FB6818461037BD4680BD59
:104EA000A0E9020880B483B000AF7860044A7B6850
:104EB0001A607B6818460C37BD465DF8047B704766
:104EC000ECE9020880B582B000AF78607868FFF73F
:104ED000E9FF0421786826F054FF7B6818460837FC
:104EE000BD4680BD80B582B000AF7860054A7B6862
:104EF0001A607B681846FFF7D5FF7B6818460837AD
:104F0000BD4680BDA0E9020880B582B000AF7860E0
:104F10007868FFF7E7FF1021786826F032FF7B689A
:104F200018460837BD4680BD80B582B000AF7860B6
:104F3000054A7B681A607B681846FEF7ABFD7B6804
:104F400018460837BD4680BD0CFC020880B582B00B
:104F500000AF78607868FFF7E7FF2C21786826F0CB
:104F600010FF7B6818460837BD4680BD80B582B00B
:104F700000AF7860054A7B681A607B681846FEF7C8
:104F800085FF7B6818460837BD4680BD3407030897
:104F900080B582B000AF78607868FFF7E7FF2C211A
:104FA000786826F0EEFE7B6818460837BD4680BD5F
:104FB00080B582B000AF7860054A7B681A607B6874
:104FC0001846FEF763FF7B6818460837BD4680BD6C
:104FD000700A030880B582B000AF78607868FFF788
:104FE000E7FF2C21786826F0CCFE7B68184608374E
:104FF000BD4680BD80B582B000AF7860054A7B6851
:105000001A607B681846FFF78FFF7B6818460837E1
:10501000BD4680BDACFA020880B582B000AF7860B2
:105020007868FFF7E7FF3021786826F0AAFE7B68F2
:1050300018460837BD4680BD80B582B000AF7860A5
:10504000054A7B681A607B681846FFF709F87B6899
:1050500018460837BD4680BDA008030880B582B059
:1050600000AF78607868FFF7E7FF4021786826F0A6
:1050700088FE7B6818460837BD4680BD80B582B083
:1050800000AF7860084A7B681A607B683433184642
:10509000FFF7D2FF7B681846FFF7ACFF7B68184626
:1050A0000837BD4680BD00BFC0F9020880B582B098
:1050B00000AF78607868FFF7E1FF8C21786826F010
:1050C00060FE7B6818460837BD4680BD80B582B05B
:1050D00000AF7860054A7B681A607B681846FFF766
:1050E00005F87B6818460837BD4680BDFC070308F5
:1050F00080B582B000AF78607868FFF7E7FF3421B1
:10510000786826F03EFE7B6818460837BD4680BDAD
:1051100080B582B000AF7860054A7B681A607B6812
:105120001846FFF7D3FF7B6818460837BD4680BD99
:10513000C809030880B582B000AF78607868FFF7CF
:10514000E7FF3C21786826F01CFE7B68184608378C
:10515000BD4680BD80B582B000AF7860054A7B68EF
:105160001A607B681846FFF7B1FF7B68184608375E
:10517000BD4680BD4809030880B582B000AF7860A5
:105180007868FFF7E7FF3C21786826F0FAFD7B6836
:1051900018460837BD4680BD80B582B000AF786044
:1051A00039607B685B687A68D268521098187B68AF
:1051B000DB6803F00103002B02D17B689B680AE0E7
:1051C0007B685B687A68D268521013441B687A68FF
:1051D000926813441B683968984700BF0837BD467A
:1051E00080BD80B483B000AF78607B685B68002BC3
:1051F00010D07B689B68002B07D17B68DB6803F0CD
:105200000103002B01D1012300E00023012B01D079
:10521000012300E0002318460C37BD465DF8047BEF
:105220007047000080B483B000AF7860044A7B68A8
:105230001A607B6818460C37BD465DF8047B7047E2
:1052400070F2020880B582B000AF78607868FFF72E
:10525000E9FF1021786826F094FD7B68184608372E
:10526000BD4680BD90B587B000AF78600B467B80AF
:105270007B88002B01D1002310E000233B61002339
:10528000FB737B681B6808331C6807F10F0307F189
:10529000100279887868A04778617B6918461C37C6
:1052A000BD4690BD80B483B000AF78607B685B89F9
:1052B00018460C37BD465DF8047B704780B483B058
:1052C00000AF78607B689B8918460C37BD465DF857
:1052D000047B704780B483B000AF78607B689B88A4
:1052E00018460C37BD465DF8047B704780B483B028
:1052F00000AF78607B689A887B689B799BB2134487
:105300009BB218460C37BD465DF8047B704780B4ED
:1053100083B000AF78607B68DB79C3F30603DBB250
:1053200018460C37BD465DF8047B704780B483B0E7
:1053300000AF78607B68DB79C3F3C013DBB218463B
:105340000C37BD465DF8047B7047000080B582B025
:1053500000AF7860054A7B681A607B681846FFF7E3
:1053600061FF7B6818460837BD4680BD500F0308B3
:1053700080B582B000AF78607868FFF7E7FF18214A
:10538000786826F0FEFC7B6818460837BD4680BD6D
:1053900080B582B000AF7860054A7B681A607B6890
:1053A0001846FFF7D3FF7B6818460837BD4680BD17
:1053B00080EB020880B582B000AF78607868FFF7B4
:1053C000E7FF2821786826F0DCFC7B681846083760
:1053D000BD4680BD80B483B000AF786039603B6863
:1053E00018460C37BD465DF8047B704780B485B025
:1053F00000AFF860084611461A4603467B810B460B
:105400003B811346FB80FB687A891A80FB683A89E6
:105410005A80FB68FA889A80FB683A8BDA80FB68CE
:1054200018461437BD465DF8047B704780B483B0DE
:1054300000AF78607B68B3F9083018460C37BD467A
:105440005DF8047B704780B483B000AF78607B6800
:10545000B3F90A3018460C37BD465DF8047B704737
:1054600080B400AF0B4B1B6893F87630002B08D04C
:10547000084B1B68DB6C002B03D0064B1B68DB6CF6
:1054800002E0044B1B689B681846BD465DF8047B30
:10549000704700BF34AE002480B483B000AF7860A2
:1054A000074A7B681A607B6800225A607B6800228A
:1054B0001A727B6818460C37BD465DF8047B70474E
:1054C0005CEB020880B483B000AF7860044A7B686C
:1054D0001A607B6818460C37BD465DF8047B704740
:1054E0005CEB020880B582B000AF78607868FFF7A7
:1054F000E9FF0C21786826F044FC7B6818460837E1
:10550000BD4680BD80B483B000AF786000BF0C376B
:10551000BD465DF8047B704780B483B000AF78600F
:1055200000BF0C37BD465DF8047B704780B483B084
:1055300000AF786000BF0C37BD465DF8047B704754
:1055400080B582B000AF786017F092FB03461A680E
:10555000303212681846904700BF0837BD4680BDFC
:1055600080B483B000AF786039607B683A685A6075
:1055700000BF0C37BD465DF8047B704780B582B034
:1055800000AF78607B68184617F0DCFB094A7B683F
:105590001A607B680022C3F838217B680022C3F8B8
:1055A0003C217B68044A13607B6818460837BD4677
:1055B00080BD00BF30E6020880AE002480B483B016
:1055C00000AF786039607B683A681A6000BF0C37BA
:1055D000BD465DF8047B704780B483B000AF78604F
:1055E0007B6801221A7200BF0C37BD465DF8047B50
:1055F000704780B483B000AF786039607B683A68E8
:105600005A6000BF0C37BD465DF8047B7047000050
:1056100080B584B000AFF860B9607A60FB68184666
:10562000FFF7ACFF134AFB681A60FB6803F5A07331
:10563000184600F043FAFB687A68C3F85021FB680B
:10564000BA68C3F85421FCF79DFC03461A68083277
:105650001268002118469047002005F06DFBFFF707
:10566000FFFE034618461FF048FAFB68184610373D
:10567000BD4680BDD4E5020880B483B000AF786039
:1056800039607B6818460C37BD465DF8047B70476F
:1056900080B582B000AF786039607B683A681146A7
:1056A0001846FFF7E9FF3B685A687B685A607B68D9
:1056B0003A680833083292E8030083E803007B6805
:1056C00018460837BD4680BD90B589B000AF7860F8
:1056D0007B6803F5A074104BBB610023FB6107F1ED
:1056E000080007F118030CCB796800F003FA07F102
:1056F000080319462046FFF7CBFF07F108031846B9
:10570000FDF752FD7B6803F5A0727B68C3F83C216E
:1057100000BF2437BD4690BD1D57000880B584B03A
:1057200002AF78607B6803F59C717B68D3F85031D9
:105730001A467B68D3F854310093044B044800F0B8
:105740000BFA00BF0837BD4680BD00BF74AE002411
:1057500070AE002490B589B000AF78607B6803F527
:10576000A074104BBB610023FB6107F1080007F137
:1057700018030CCB796800F0BDF907F1080319464E
:105780002046FFF785FF07F108031846FDF70CFDDB
:105790007B6803F5A0727B68C3F83C2100BF243707
:1057A000BD4690BDA957000880B584B002AF7860AF
:1057B0007B6803F59C717B68D3F850311A467B688F
:1057C000D3F854310093044B044800F0E1FA00BFD1
:1057D0000837BD4680BD00BF74AE002470AE002403
:1057E00090B589B000AF78607B6803F5A074104B6A
:1057F000BB610023FB6107F1080007F118030CCB24
:10580000796800F077F907F1080319462046FFF799
:105810003FFF07F108031846FDF7C6FC7B6803F558
:10582000A0727B68C3F83C2100BF2437BD4690BD01
:105830003558000880B584B002AF78607B6803F506
:105840009C717B68D3F850311A467B68D3F8543189
:105850000093044B044800F0B9FB00BF0837BD4675
:1058600080BD00BF74AE002470AE002490B589B036
:1058700000AF78607B6803F5A074104BBB61002318
:10588000FB6107F1080007F118030CCB796800F001
:1058900031F907F1080319462046FFF7F9FE07F131
:1058A00008031846FDF780FC7B6803F5A0727B684F
:1058B000C3F83C2100BF2437BD4690BDC158000845
:1058C00080B584B002AF78607B6803F59C717B681B
:1058D000D3F850311A467B68D3F854310093044B07
:1058E000044800F091FC00BF0837BD4680BD00BFF2
:1058F00074AE002470AE002490B589B000AF78601B
:105900007B6803F5A074104BBB610023FB6107F1BA
:10591000080007F118030CCB796800F0EBF807F1E9
:10592000080319462046FFF7B3FE07F1080318469F
:10593000FDF73AFC7B6803F5A0727B68C3F83C2155
:1059400000BF2437BD4690BD4D59000880B584B0D6
:1059500002AF78607B6803F59C717B68D3F85031A7
:105960001A467B68D3F854310093044B044800F086
:1059700069FD00BF0837BD4680BD00BF74AE00247E
:1059800070AE002490B589B000AF78607B6803F5F5
:10599000A074104BBB610023FB6107F1080007F105
:1059A00018030CCB796800F0A5F807F10803194635
:1059B0002046FFF76DFE07F108031846FDF7F4FBDC
:1059C0007B6803F5A0727B68C3F83C2100BF2437D5
:1059D000BD4690BDD959000880B584B002AF78604B
:1059E0007B6803F59C717B68D3F850311A467B685D
:1059F000D3F854310093044B044800F041FE00BF3B
:105A00000837BD4680BD00BF74AE002470AE0024D0
:105A100090B589B000AF78607B6803F5A074104B37
:105A2000BB610023FB6107F1080007F118030CCBF1
:105A3000796800F05FF807F1080319462046FFF780
:105A400027FE07F108031846FDF7AEFB7B6803F558
:105A5000A0727B68C3F83C2100BF2437BD4690BDCF
:105A6000655A000880B584B002AF78607B6803F5A2
:105A70009C717B68D3F850311A467B68D3F8543157
:105A80000093044B044800F019FF00BF0837BD46DF
:105A900080BD00BF74AE002470AE002480B483B01B
:105AA00000AF7860044A7B681A607B6818460C3740
:105AB000BD465DF8047B704774E6020880B582B08D
:105AC00000AF78607B681846FFF7E8FF084A7B68FC
:105AD0001A607B6800225A607B6800229A607B68AB
