:020000040800F2
:1000000000000824FD150008F5130008FB13000884
:1000100001140008071400080D1400080000000077
:1000200000000000000000000000000071690008EE
:100030001314000800000000C16B0008415C0008B8
:100040004D1600084D1600084D1600084D16000804
:100050004D1600084D1600084D1600084D160008F4
:100060004D1600084D1600084D1600084D160008E4
:100070004D1600084D1600084D1600084D160008D4
:100080004D1600084D1600084D1600084D160008C4
:100090004D1600084D1600084D1600084D160008B4
:1000A0004D1600084D1600084D1600084D160008A4
:1000B0004D1600084D1600084D1600084D16000894
:1000C0004D1600084D1600084D1600084D16000884
:1000D0004D1600084D1600084D1600084D16000874
:1000E0004D1600084D160008000000004D160008CF
:1000F0004D1600084D1600084D1600084D16000854
:100100004D1600084D1600084D1600084D16000843
:100110004D1600084D160008211400084D16000861
:100120004D1600084D1600084D1600084D16000823
:100130004D1600084D1600084D1600084D16000813
:100140004D1600084D1600080000000000000000D9
:100150004D1600084D1600084D1600084D160008F3
:100160004D1600084D1600084D1600084D160008E3
:100170004D1600084D1600084D160008000000003E
:100180004D1600084D1600084D1600084D160008C3
:100190004D1600084D1600084D1600084D160008B3
:1001A000351400084D160008491400084D160008C3
:1001B0005D1400084D1600084D1600084D16000885
:1001C0004D1600084D1600084D1600084D16000883
:1001D0004D1600084D1600084D1600084D16000873
:1001E0004D1600084D1600084D1600084D16000863
:1001F0004D1600084D1600084D1600084D16000853
:100200004D1600084D1600084D1600084D16000842
:100210004D1600084D1600084D1600084D16000832
:100220004D1600084D1600084D160008000000008D
:100230004D1600084D1600084D1600084D16000812
:100240004D1600084D1600084D1600084D16000802
:100250004D1600084D1600084D1600084D160008F2
:100260004D1600084D1600084D1600084D160008E2
:100270004D1600084D1600084D1600084D160008D2
:100280004D1600084D1600084D160008000000002D
:080290004D1600084D16000890
:1002A00010B5054C237833B9044B13B10448AFF3B0
:1002B00000800123237010BD2C01002400000000E9
:1002C0008454020808B5034B1BB103490348AFF33C
:1002D000008008BD000000003001002484540208A2
:1002E00001F0FF01102A2BDB10F0070F08D010F8E7
:1002F000013B013A8B422DD010F0070F42B3F6D1EB
:10030000F0B441EA012141EA014122F007047FF003
:1003100000070023F0E80256083C85EA010586EA5A
:10032000010685FA47F5A3FA87F586FA47F6A5FA96
:1003300087F68EB9EED1F0BC01F0FF0102F00702A2
:1003400032B110F8013B013A83EA010313B1F8D14D
:100350000020704701387047002D06BF354603382E
:10036000073815F0010F07D1013015F4807F02BF67
:10037000013015F4C03F0130F0BC0138704700BFB8
:1003800080B586B000AF00F063FB644B5B6903F49B
:100390000033002B1BD1BFF34F8F00BFBFF36F8F14
:1003A00000BF5E4B0022C3F85022BFF34F8F00BF47
:1003B000BFF36F8F00BF594B5B69584A43F400335A
:1003C0005361BFF34F8F00BFBFF36F8F00E000BFDB
:1003D000524B5B6903F48033002B38D14F4B002222
:1003E000C3F88420BFF34F8F00BF4C4BD3F880304D
:1003F0003B613B695B0BC3F30E03FB603B69DB08AE
:10040000C3F30903BB60FB685A0143F6E073134072
:10041000BA68920741491343C1F86032BB685A1E5B
:10042000BA60002BEFD1FB685A1EFA60002BE5D1B1
:10043000BFF34F8F00BF394B5B69384A43F48033B9
:100440005361BFF34F8F00BFBFF36F8F00E000BF5A
:100450004FF6FF737B6100BF314B1B6803F4004311
:10046000002B04D07B695A1E7A61002BF4DC7B6977
:10047000002B01DA00F036FB0BF0F8FB00F05EF821
:10048000274BD3F8E030264A43F00073C2F8E0303F
:10049000234BD3F8E03003F000737B607B680020CF
:1004A0000CF00CFB002100200CF022FB4FF6FF7338
:1004B0007B6100BF1A4B1B6803F40043002B04D17F
:1004C0007B695A1E7A61002BF4DC7B69002B01DA10
:1004D00000F008FB00F008FA00F082F900F0AEF935
:1004E00000F0FAF800F0B8F800F0D8F801F0AFF832
:1004F00005F0C0FB0B4A00210B4805F005FC034644
:100500000A4A13600A4A00210A4805F0FDFB034627
:10051000094A136005F0D2FBFEE700BF00ED00E0E2
:100520000044025830610208410A000898AD0024D6
:10053000546102085B1600089CAE002480B59CB094
:1005400000AF07F124034C220021184623F0ACFF32
:100550003B1D20220021184623F0A6FF04200DF0A9
:1005600031FE00233B60394BDB6A384A23F001033C
:10057000D362364BDB6A03F001033B60344B9B696B
:10058000334A43F440439361314B9B6903F4404346
:100590003B603B6800BF2E4B9B6903F40053B3F5EF
:1005A000005FF8D12B4B9B6A23F00303294A43F0E9
:1005B0000203936203237B624FF48033BB62012307
:1005C0003B6340237B630223BB640223FB6405235C
:1005D0003B65A0237B650223BB650423FB650223E7
:1005E0003B6608237B660023BB660023FB6607F19E
:1005F000240318460EF022FD0346002B01D000F024
:1006000071FA3F237B600323BB600023FB60082358
:100610003B6140237B614023BB614FF48063FB61FE
:1006200040233B623B1D022118460FF033F903467D
:10063000002B01D000F056FA4FF480220021002058
:100640000FF0DEFA00BF7037BD4680BD00040058D1
:10065000004802580044025880B500AF0D4B0E4AC6
:100660001A600C4B00221A710A4B00225A71094B76
:1006700000225A61074B00229A61064B01221A623E
:1006800004480BF0E9FC0346002B01D000F02AFAE5
:1006900000BF80BD9CAD0024004C025880B500AF67
:1006A0000B4B0C4A1A600A4B4FF440325A60084B0D
:1006B00002229A60064B0022DA6005480BF0B6FD74
:1006C0000346002B01D000F00DFA00BF80BD00BF33
:1006D000A0AE00240010005280B58EB000AF00F034
:1006E00007FA3B1D34220021184623F0DDFE3A4B69
:1006F0003A4A1A60384B00225A60374B00229A60FF
:10070000354B0022DA60344B00221A61324B28222A
:100710005A61314B09229A612F4B3522DA612E4BF7
:100720000B221A622C4B40F215225A622A4B40F2DD
:100730001B129A62284B40F23522DA62264B40F2B5
:100740001D121A63244B002283F83420224B00220E
:1007500083F83520204B002283F836201E480DF008
:1007600035F80346002B01D000F0BCF900237B6074
:100770004FF4F073BB600023FB604FF488733B6160
:1007800002237B61FF23BB610023FB614FF4806385
:100790003B6205237B624FF05043BB624FF4F07322
:1007A000FB624FF488733B63002387F834300023E7
:1007B00087F83530002387F836303B1D0022194674
:1007C00005480DF08BF90346002B01D000F08AF9A3
:1007D00000BF3837BD4680BDC0AD002400100050BA
:1007E00080B500AF124B134A1A60114B01225A60B8
:1007F0000F4B01229A600E4B1022DA600C4B1A222A
:100800001A610B4B4FF400725A61094B00229A6136
:10081000074B40221A6206480DF02EFD0346002BBE
:1008200001D000F05FF9044800F0D6F900BF80BDA8
:1008300008AF002400500052E50A000880B588B0D7
:1008400000AF3B1D00221A605A609A60DA601A619C
:100850005A619A61214B224A1A60204B01225A6048
:100860001E4B00229A601D4B0422DA601B4B1022A3
:100870001A611A4B40225A61184B4FF480729A61E8
:10088000164B0022DA61154B4FF400621A62134BCB
:100890004FF480525A62114B00229A6202237B600D
:1008A0000623BB600423FB6006233B6102237B61BC
:1008B0000223BB610223FB613B1D1946074810F070
:1008C000C5FC0346002B01D000F00CF9054800F0F0
:1008D000A4F900BF2037BD4680BD00BF68AE00242C
:1008E00040410052E50A000880B58EB000AF07F124
:1008F000240300221A605A609A60DA601A614E4B33
:10090000D3F8E0304C4A43F48063C2F8E0304A4BFD
:10091000D3F8E03003F480633B623B6A464BD3F884
:10092000E030454A43F04003C2F8E030424BD3F890
:10093000E03003F04003FB61FB693F4BD3F8E0304C
:100940003D4A43F48073C2F8E0303B4BD3F8E030CB
:1009500003F48073BB61BB69374BD3F8E030364A90
:1009600043F01003C2F8E030334BD3F8E03003F02B
:1009700010037B617B69304BD3F8E0302E4A43F49F
:100980000073C2F8E0302C4BD3F8E03003F400736E
:100990003B613B69284BD3F8E030274A43F008031A
:1009A000C2F8E030244BD3F8E03003F00803FB60DA
:1009B000FB68214BD3F8E0301F4A43F00103C2F833
:1009C000E0301D4BD3F8E03003F00103BB60BB689F
:1009D000194BD3F8E030184A43F02003C2F8E03056
:1009E000154BD3F8E03003F020037B607B68124B9B
:1009F000D3F8E030104A43F08003C2F8E0300E4BE9
:100A0000D3F8E03003F080033B603B684FF4807321
:100A10007B620223BB620023FB6200233B63002353
:100A20007B6307F12403194604480BF073FD00BFF4
:100A30003837BD4680BD00BF004402580000025850
:100A400080B582B000AF7860012005F0EFF9FBE7D8
:100A500080B584B000AF3B4600221A605A609A60AD
:100A6000DA600BF07DFA01233B7000237B704FF0BE
:100A700050437B6013233B7200237B720023BB72C5
:100A80000323FB7201233B7300237B730123BB739E
:100A90000123FB733B4618460BF09AFA01237B7047
:100AA0004FF010437B601A233B723B4618460BF015
:100AB0008FFA04200BF06CFA00BF1037BD4680BDE2
:100AC00080B582B000AF78607B681B68044A9342AF
:100AD00001D10BF007F900BF0837BD4680BD00BF4C
:100AE0000010004080B400AF72B600BFFEE7000007
:100AF00080B58CB000AF364BD3F8E430344A43F0C5
:100B00000803C2F8E430324BD3F8E43003F00803B2
:100B1000BB61BB692E4BD3F8E0302D4A43F48073A0
:100B2000C2F8E0302A4BD3F8E03003F480737B61E5
:100B30007B69274BD3F8E030254A43F40073C2F8B1
:100B4000E030234BD3F8E03003F400733B613B69A2
:100B50001F4BD3F8E0301E4A43F48063C2F8E03004
:100B60001B4BD3F8E03003F48063FB60FB68184B49
:100B7000D3F8E030164A43F08003C2F8E030144B5B
:100B8000D3F8E03003F08003BB60BB68104BD3F8B0
:100B9000E0300F4A43F00803C2F8E0300C4BD3F8C2
:100BA000E03003F008037B607B688023FB61012356
:100BB0003B6207F11C03194606480BF0ABFC01220F
:100BC000802104480BF060FF00BF3037BD4680BD78
:100BD00000440258000C025880B584B000AF786021
:100BE00003233B7301237B734023BB7307F10C0387
:100BF0001946002009F0F4FF0346002B01D07B6862
:100C0000984700200AF0C6F80346002B01D07B6805
:100C1000984700BF1037BD4680BD80B582B000AF99
:100C2000786000200AF024FC00200AF0C5FB03468F
:100C3000002B01D07B68984700BF0837BD4680BDB8
:100C400080B582B000AF0C4BD3F8F4300A4A43F0C1
:100C50000203C2F8F430084BD3F8F43003F0020377
:100C60007B607B6800220F216FF001000BF042F9DE
:100C700000BF0837BD4680BD0044025880B485B02F
:100C800000AF78607B681B680B4A93420ED10B4B18
:100C9000D3F8E030094A43F40023C2F8E030074BB0
:100CA000D3F8E03003F40023FB60FB6800BF143787
:100CB000BD465DF8047B7047004C02580044025862
:100CC00080B584B000AF78607B681B680E4A9342A1
:100CD00016D10E4BD3F8D4300C4A43F01003C2F8AF
:100CE000D4300A4BD3F8D43003F01003FB60FB6818
:100CF000002205215A200BF0FDF85A200BF014F9C0
:100D000000BF1037BD4680BD00100052004402589D
:100D100080B5BCB000AF786007F1DC0300221A6038
:100D20005A609A60DA601A6107F12003BC22002140
:100D3000184623F0B9FB7B681B68684A934240F071
:100D4000C8804FF000533B6205237B64A023BB6443
:100D50000223FB6402233B6553237B654FF400634E
:100D6000BB650023FB6500233B6607F120031846A3
:100D70000FF0C8F90346002B01D0FFF7B3FE584B24
:100D8000D3F8E430564A43F00803C2F8E430544B39
:100D9000D3F8E43003F00803FB61FB69504BD3F850
:100DA000E0304F4A43F48063C2F8E0304C4BD3F854
:100DB000E03003F48063BB61BB69494BD3F8E0309A
:100DC000474A43F48073C2F8E030454BD3F8E03033
:100DD00003F480737B617B69414BD3F8E030404A78
:100DE00043F40073C2F8E0303D4BD3F8E03003F435
:100DF00000733B613B693A4BD3F8E030384A43F02B
:100E00008003C2F8E030364BD3F8E03003F08003C3
:100E1000FB60FB68FC23C7F8DC300223C7F8E03036
:100E20000023C7F8E4300223C7F8E8300E23C7F8E0
:100E3000EC3007F1DC0319462A480BF06BFB4DF24E
:100E40000323C7F8DC300223C7F8E0300023C7F8DB
:100E5000E4300223C7F8E8300E23C7F8EC3007F17E
:100E6000DC03194620480BF055FB4FF6FB73C7F81F
:100E7000DC300223C7F8E0300023C7F8E430022357
:100E8000C7F8E8300E23C7F8EC3007F1DC03194649
:100E900016480BF03FFB4FF40073C7F8DC30022319
:100EA000C7F8E0300023C7F8E4300223C7F8E83081
:100EB0000E23C7F8EC3007F1DC0319460C480BF0A1
:100EC00029FB0022052158200BF014F858200BF0C4
:100ED0002BF800BFF037BD4680BD00BF00100050AA
:100EE00000440258002802580020025800240258EA
:100EF000001C025880B5BCB000AF786007F1DC037D
:100F000000221A605A609A60DA601A6107F12003C1
:100F1000BC220021184623F0C7FA7B681B68764A7A
:100F2000934240F0E4804FF000733B620023BB66C5
:100F300007F1200318460FF0E5F80346002B01D017
:100F4000FFF7D0FD6D4BD3F8D4306C4A43F48043A7
:100F5000C2F8D430694BD3F8D43003F48043FB613A
:100F6000FB69664BD3F8E030644A43F04003C2F8B3
:100F7000E030624BD3F8E03003F04003BB61BB6963
:100F80005E4BD3F8E0305D4A43F02003C2F8E03016
:100F90005A4BD3F8E03003F020037B617B69574B59
:100FA000D3F8E030554A43F08003C2F8E030534BA9
:100FB000D3F8E03003F080033B613B694F4BD3F83B
:100FC000E0304E4A43F00803C2F8E0304B4BD3F810
:100FD000E03003F00803FB60FB684FF48443C7F87C
:100FE000DC300223C7F8E0300023C7F8E4300323E5
:100FF000C7F8E8300923C7F8EC3007F1DC031946DD
:101000003F480BF087FA4023C7F8DC300223C7F8CB
:10101000E0300123C7F8E4300323C7F8E8300A239F
:10102000C7F8EC3007F1DC03194635480BF072FACB
:101030004FF49863C7F8DC300223C7F8E030002390
:10104000C7F8E4300323C7F8E8300923C7F8EC30C9
:1010500007F1DC0319462B480BF05CFA4FF40073E0
:10106000C7F8DC300223C7F8E0300023C7F8E430CB
:101070000323C7F8E8300A23C7F8EC3007F1DC0394
:10108000194620480BF046FA0C23C7F8DC3002233F
:10109000C7F8E0300023C7F8E4300323C7F8E8308E
:1010A0000923C7F8EC3007F1DC03194616480BF0AA
:1010B00031FA4FF40063C7F8DC300223C7F8E030A0
:1010C0000023C7F8E4300323C7F8E8300923C7F842
:1010D000EC3007F1DC0319460C480BF01BFA002238
:1010E00005215C200AF006FF5C200AF01DFF00BF0E
:1010F000F037BD4680BD00BF00500052004402588A
:101100000018025800140258001C0258000C025823
:1011100080B5B6B000AF07F1C40300221A605A6070
:101120009A60DA601A614F4B1B68002B40F0968082
:101130004C4B01221A6007F10803BC22002118461B
:1011400023F0B2F94FF08073BB600023FB6407F11A
:10115000080318460EF0D6FF0346002B01D0FFF718
:10116000C1FC414BD3F8D4303F4A43F48053C2F81A
:10117000D4303D4BD3F8D43003F480537B607B688C
:101180004FF68373C7F8C4300223C7F8C830002372
:10119000C7F8CC300323C7F8D0300C23C7F8D430BD
:1011A00007F1C403194631480BF0B4F948F2331380
:1011B000C7F8C4300223C7F8C8300023C7F8CC30C2
:1011C0000323C7F8D0300C23C7F8D43007F1C40389
:1011D000194627480BF09EF94CF20373C7F8C43048
:1011E0000223C7F8C8300023C7F8CC300323C7F860
:1011F000D0300C23C7F8D43007F1C40319461D487A
:101200000BF088F94FF63F03C7F8C4300223C7F844
:10121000C8300023C7F8CC300323C7F8D0300C23E4
:10122000C7F8D43007F1C403194613480BF072F91C
:10123000E023C7F8C4300223C7F8C8300023C7F83A
:10124000CC300323C7F8D0300C23C7F8D43007F1D3
:10125000C403194609480BF05DF900E000BFD83718
:10126000BD4680BD480100240044025800100258C9
:1012700000180258000C025800140258001C0258B2
:1012800080B582B000AF7860FFF742FF00BF08373B
:10129000BD4680BD80B500AF144B1B68002B23D129
:1012A000124B01221A60124BD3F8D430104A23F4A7
:1012B0008053C2F8D4304FF683710E480BF0DAFA3F
:1012C00048F233110C480BF0D5FA4CF203710B487D
:1012D0000BF0D0FA4FF63F0109480BF0CBFAE021B2
:1012E00008480BF0C7FA00E000BF80BD4C010024A5
:1012F000004402580010025800180258000C02580E
:1013000000140258001C025880B582B000AF78600B
:10131000FFF7C0FF00BF0837BD4680BD80B590B065
:1013200000AF78607B680F2B27D8002279683620C1
:101330000AF0E0FD36200AF0F7FD294A7B681360C9
:10134000284BD3F8E830274A43F01003C2F8E830BE
:10135000244BD3F8E83003F01003FB60FB6807F17F
:10136000100207F11403114618460EF089FEBB6AFD
:10137000BB63BB6B002B06D101E001232BE00EF019
:1013800053FEF86304E00EF04FFE03465B00FB6380
:10139000FB6B154AA2FB03239B0C013B7B63134BA6
:1013A000134A1A60114B40F2E732DA600F4A7B6B46
:1013B00053600E4B00221A610C4B00229A600B48BE
:1013C0000FF0F9FF0346002B04D1084810F054F841
:1013D000034600E0012318464037BD4680BD00BFEC
:1013E000480000240044025883DE1B4354AF00240D
:1013F0000010004080B400AFFEE780B400AFFEE70D
:1014000080B400AFFEE780B400AFFEE780B400AF69
:10141000FEE780B400AF00BFBD465DF8047B7047B7
:1014200080B500AF024810F09FF800BF80BD00BF3C
:1014300054AF002480B500AF02480CF097FA00BF0B
:1014400080BD00BFC0AD002480B500AF02480AF0E7
:1014500051FF00BF80BD00BFA0AE002480B500AF2B
:1014600002480CF07DFF00BF80BD00BF08AF002424
:1014700080B400AF01231846BD465DF8047B704779
:1014800080B582B000AF7860396022F0B3FF0346C8
:1014900016221A604FF0FF3318460837BD4680BD4C
:1014A00080B582B000AF78604FF0FF317868FFF709
:1014B000E7FFFEE780B586B000AFF860B9607A60FC
:1014C00000237B610AE0AFF300800146BB685A1C31
:1014D000BA60CAB21A707B6901337B617A697B6832
:1014E0009A42F0DB7B6818461837BD4680BD80B550
:1014F00086B000AFF860B9607A6000237B6109E0D4
:10150000BB685A1CBA601B781846AFF300807B6931
:1015100001337B617A697B689A42F1DB7B6818460C
:101520001837BD4680BD80B483B000AF78604FF0FF
:10153000FF3318460C37BD465DF8047B704780B416
:1015400083B000AF786039603B684FF400525A6056
:10155000002318460C37BD465DF8047B704780B405
:1015600083B000AF7860012318460C37BD465DF8A4
:10157000047B704780B485B000AFF860B9607A60D2
:10158000002318461437BD465DF8047B7047000001
:1015900080B586B000AF7860144A154BD31A7B61D2
:1015A0007B693B61134B1B68002B02D1114B124A24
:1015B0001A60104B1A687B6813443A699A4207D242
:1015C00022F018FF03460C221A604FF0FF3309E0A7
:1015D000084B1B68FB60074B1A687B681344054A7D
:1015E0001360FB6818461837BD4680BD000008240C
:1015F000001000005001002480B00024DFF834D037
:1016000007F0FAFE0C480D490D4A002302E0D458B9
:10161000C4500433C4188C42F9D30A4A0A4C00233C
:1016200001E013600432A242FBD322F0FBFEFEF77E
:10163000A7FE704700000824000000242C010024AD
:10164000389602082C01002480B00024FEE780B503
:1016500000AF01F069FC00BF80BD80B582B000AF73
:10166000786001F08BFC00BF0837BD4680BD0000EC
:1016700080B483B000AF7860044A7B681A607B68EE
:1016800018460C37BD465DF8047B70479861020828
:1016900080B582B000AF78607868FFF7E9FF042179
:1016A000786822F046FE7B6818460837BD4680BD44
:1016B00080B582B000AF786000F0A8FA00BF0837AC
:1016C000BD4680BD80B584B000AFF860B9607A6077
:1016D0007968B86800F0BEFA034618461037BD4670
:1016E00080BD000080B582B000AF7860054A7B689D
:1016F0001A607B681846FFF7BBFF7B6818460837FF
:10170000BD4680BD8061020880B582B000AF7860C0
:101710007868FFF7E7FF0421786822F00AFE7B680B
:1017200018460837BD4680BD80B483B000AF03467D
:10173000FB71FB79032B0CD801A252F823F000BFF8
:1017400051170008511700085117000851170008D9
:1017500000BF00BF0C37BD465DF8047B704700BF7B
:1017600080B483B000AF0346FB71FB79032B0CD828
:1017700001A252F823F000BF89170008891700085A
:10178000891700088917000800BF00BF0C37BD4645
:101790005DF8047B704700BF80B483B000AF0346A0
:1017A000FB71FB79032B0CD801A252F823F000BF88
:1017B000C1170008C1170008C1170008C1170008A9
:1017C00000BF00BF0C37BD465DF8047B704700BF0B
:1017D00080B483B000AF7860044A7B681A607B688D
:1017E00018460C37BD465DF8047B704770730208DD
:1017F00080B582B000AF78607868FFF7E9FF7C21A0
:10180000786822F096FD7B6818460837BD4680BD93
:1018100080B483B000AF78600B46FB707B68FA78C9
:1018200083F874207B68012283F8752000BF0C3791
:10183000BD465DF8047B704780B582B000AF78602C
:101840000B467B8013463B800C4B1B887A889A4260
:1018500004D30B4B1B883A889A4205D2094B0A4A9B
:101860009E210A4822F094FD094A7B881380094A88
:101870003B88138000BF0837BD4680BDF0AA002416
:10188000F2AA0024B85402081C5502086055020848
:10189000F6AA0024F8AA002480B582B000AF7860D0
:1018A0007B6893F87730002B09D07B685A687B6897
:1018B0005B681B681B6810469847034600E00023DE
:1018C00018460837BD4680BD80B582B000AF78604D
:1018D000786811F003FB7B681B68A4331B68786889
:1018E000984700BF0837BD4680BD80B483B000AFC5
:1018F00078603960002318460C37BD465DF8047BDC
:101900007047000080B584B000AFF860B9607A60BD
:101910003B60BB68002B06D1114B124A4FF42B7170
:10192000114822F035FDFB68BA68DA63FB687A6813
:101930001A64FB683A685A647B68002B14BF012361
:101940000023DAB2094B1A703B68002B14BF012345
:101950000023DAB2064B1A7000BF1037BD4680BDB7
:10196000B4550208EC55020860550208FAAA002492
:10197000FBAA002480B483B000AF7860002318462F
:101980000C37BD465DF8047B704780B582B000AF70
:1019900078600B467B807B689B6B002B04D07B6858
:1019A0009B6B7A881046984700BF0837BD4680BDBC
:1019B00080B483B000AF78604FF6FF7318460C37E1
:1019C000BD465DF8047B704780B582B000AF78609B
:1019D0007B685A687B685B681B6818331B68104615
:1019E0009847034618460837BD4680BD80B485B089
:1019F00000AF78607B6893F874207B6893F834308C
:101A00009A4211D0144B1B78002B1ED1134B1B880C
:101A1000BB81134B1A88114B1A80114ABB89138062
:101A20000D4B01221A7010E00B4B1B78002B0CD0D1
:101A30000A4B1B88FB810A4B1A88084B1A80084AFC
:101A4000FB891380044B00221A7000BF1437BD4677
:101A50005DF8047B704700BFF4AA0024F2AA0024BA
:101A6000F0AA002480B582B000AF78607B68184689
:101A700010F0EAFB00BF0837BD4680BD80B582B0DC
:101A800000AF7860054A7B681A607B681846FFF7EC
:101A90009FFE7B6818460837BD4680BD006502087A
:101AA00080B582B000AF78607868FFF7E7FF7C21EF
:101AB000786822F03EFC7B6818460837BD4680BD3A
:101AC00080B582B000AF78607B681846FFF7CAFF28
:101AD00000BF0837BD4680BD80B582B000AF7860DA
:101AE0007B68184601F038FD00BF0837BD4680BD51
:101AF00080B582B000AF78607B68184601F0C4FD05
:101B0000034618460837BD4680BD80B582B000AF99
:101B1000786039607B683968184601F0C3FD00BF02
:101B20000837BD4680BD80B582B000AF78603960AF
:101B30007B683968184601F0CBFD00BF0837BD4609
:101B400080BD80B584B000AFF860B9607A603B605A
:101B5000F8683B687A68B96801F012FE03461846D7
:101B60001037BD4680BD80B582B000AF78607B681D
:101B7000184601F015FD00BF0837BD4680BD80B591
:101B800082B000AF78607B68184601F019FD00BF95
:101B90000837BD4680BD80B582B000AF78607B68F5
:101BA000184601F01BFD00BF0837BD4680BD80B55B
:101BB00082B000AF78607B68184601F01DFD00BF61
:101BC0000837BD4680BD000080B582B000AF7860A8
:101BD000054A7B681A607B681846FFF74FFF7B68F1
:101BE00018460837BD4680BDB061020880B582B096
:101BF00000AF78607868FFF7E7FF7C21786822F013
:101C000098FB7B6818460837BD4680BD80B584B018
:101C100000AF4FF4F0733B604FF488737B60082390
:101C2000BB600023FB603B461946002009F0A6FD7F
:101C30000346002B14BF01230023DBB2002B03D18A
:101C4000034B01221A7000E000BF1037BD4680BD73
:101C50005401002480B582B000AF78603960114B28
:101C60001B7883F00103DBB2002B01D0002314E0CA
:101C70000D49002009F03EFE0B4B1B68002B01D1E3
:101C800000230AE0084B5B681A467B681A60064B23
:101C90009B681A463B681A60012318460837BD4600
:101CA00080BD00BF540100245801002480B500AF5E
:101CB00000220121012004F0D4F803460F4A1360EA
:101CC0000E4B1B68002B05D10D4B0E4A28210E48E8
:101CD00022F05EFB00220421012004F0E1F903461A
:101CE0000A4A1360094B1B68002B05D1084B054AB3
:101CF0002C21054822F04CFB00BF80BD640100246C
:101D00003C56020888560208B856020868010024AA
:101D10000457020880B500AF044B1B684FF0FF3139
:101D2000184604F027F900BF80BD00BF64010024FD
:101D300080B500AF034B1B68184604F06DF900BF77
:101D400080BD00BF6401002480B500AF034B1B6859
:101D50000021184604F00EF900BF80BD6401002484
:101D600080B500AF034B1B68184604F055F900BF5F
:101D700080BD00BF6401002480B500AF044B18682B
:101D800000230022034904F0FFF900BF80BD00BF1B
:101D9000680100240400002480B582B000AF094B24
:101DA0001868391D0023002204F04EFA054B18680C
:101DB000391D4FF0FF33002204F046FA00BF083708
:101DC000BD4680BD6801002480B483B000AF0346E7
:101DD000FB80B7F90630002B0BDBFB8803F01F02FA
:101DE0000749B7F906305B09012000FA02F241F811
:101DF000232000BF0C37BD465DF8047B704700BF51
:101E000000E100E080B483B000AF0346FB80B7F987
:101E10000630002B12DBFB8803F01F020A49B7F9DA
:101E200006305B09012000FA02F2203341F823203A
:101E3000BFF34F8F00BFBFF36F8F00BF00BF0C37E2
:101E4000BD465DF8047B704700E100E080B483B0DC
:101E500000AF78607B6800221A607B6818460C37F8
:101E6000BD465DF8047B704780B483B000AF7860F6
:101E70007B681B6818460C37BD465DF8047B7047CD
:101E800080B483B000AF7860044A7B681A607B68D6
:101E900018460C37BD465DF8047B7047D0620208D7
:101EA00080B582B000AF78607868FFF7E9FF042161
:101EB000786822F03EFA7B6818460837BD4680BD38
:101EC00080B582B000AF78607B681B6844331B68C4
:101ED0007868984700BF0837BD4680BD80B483B09E
:101EE00000AF7860044A7B681A607B6818460C373C
:101EF000BD465DF8047B7047C878020880B582B0A3
:101F000000AF78607868FFF7E9FF0C21786822F06D
:101F100010FA7B6818460837BD4680BD80B483B090
:101F200000AF78603960094A7B681A607B683A685C
:101F30005A607B6800221A727B6800225A727B68A2
:101F400018460C37BD465DF8047B7047C878020818
:101F500080B483B000AF7860012318460C37BD46CB
:101F60005DF8047B704780B582B000AF78607A6816
:101F70007B681B6828331B681046984700BF0837EA
:101F8000BD4680BD80B400AF034B1B681846BD46FC
:101F90005DF8047B704700BFFCAA002480B582B0C6
:101FA00000AF78607B685A687B685B681B68143395
:101FB0001B681046984700BF0837BD4680BD80B5F6
:101FC00082B000AF7860FFF7DDFF03461846FFF7E9
:101FD000E5FF00BF0837BD4680BD80B582B000AFC9
:101FE00078607B680C331846FFF730FF7B68184633
:101FF0000837BD4680BD0000B0B582B000AF786044
:102000007A687B680C3319461046FFF787FF0E4A43
:102010007B681A607B6803F10C007B6820336022C8
:10202000194611F0C1F87B6820335F241D46002C4F
:1020300005DB2846FFF7D1FF2035013CF7E77B6839
:1020400018460837BD46B0BD8062020880B582B030
:1020500000AF7860094A7B681A605A20FFF7D2FE09
:102060007B680C33184600F0C7FA7B681846FFF708
:1020700035FF7B6818460837BD4680BD8062020880
:1020800080B582B000AF78607868FFF7DFFF4FF46B
:102090004261786822F04DF97B6818460837BD46E2
:1020A00080BD000080B584B000AF7860124BD3F8DB
:1020B000D430114A43F01003C2F8D4300E4BD3F899
:1020C000D43003F01003FB60FB680B4BDB6F0A4A54
:1020D00043F01003D367084BDB6F074A23F010036C
:1020E000D367064B064A1A625A20FFF76DFE00BFFF
:1020F0001037BD4680BD00BF00440258A0AE00248A
:10210000BF1F000880B584B000AF78600B46FB703D
:102110000023FB60FB780B2B26D801A252F823F09A
:102120005D2100085721000851210008692100089D
:10213000692100086921000869210008632100085D
:10214000632100086321000863210008632100085F
:102150000023FB600EE00123FB600BE00223FB6029
:1021600008E00523FB6005E0054B064A66210648AA
:1021700022F00EF9FB6818461037BD4680BD00BF3F
:102180004857020864570208B057020880B584B067
:1021900000AF78600B46FB700023FB60FB780A2BD6
:1021A00021D801A252F823F0E1210008DB21000828
:1021B000D5210008E7210008E7210008E7210008F1
:1021C000E7210008DB210008DB210008DB210008F3
:1021D000DB2100080023FB600BE00123FB6008E02B
:1021E0000223FB6005E0054B054A8721054822F0E4
:1021F000CFF8FB6818461037BD4680BD4857020827
:10220000F8570208B057020880B483B000AF786076
:1022100040F2EF3318460C37BD465DF8047B70473B
:1022200090B589B000AF786039603B685B7F194634
:102230007868FFF767FFB8613B689B7F194678684D
:10224000FFF760FF78613B689B7F19467868FFF76E
:102250009DFF38613B685B8B1A463B689B8AD21AAC
:10226000964B1A643B685B8B1A463B689B8AD21A72
:10227000924B9A613B681B8B1A463B689B8AD21A29
:102280008E4B1A618D4A3B6953633B68DB8A1A4661
:102290003B689B8A1B041A43884B5A643B681A6943
:1022A000864BDA633B685A68844BDA603B681B688C
:1022B000B3F5007F36D0B3F5007F00F2E280B3F5CE
:1022C000807F14D0B3F5807F00F2DB80802B59D063
:1022D000802B00F2D680402B00F0BE80402B00F215
:1022E000D080042B39D0202B00F0B680C9E03B68A9
:1022F0001B7F1B061946714A714B0B43D3613B6828
:102300000C336E4C1846FFF7AFFD034623626B4A51
:102310007B6953623B681A69684B5A61674B694A2B
:102320001A60C7E03B681B7F1B061946634A664B71
:102330000B43D3613B680C33604C1846FFF794FDA8
:10234000034623625D4A7B6953623B681A695B4BB3
:102350005A615A4B5B4A1A60ACE03B681B7F1B0614
:102360001A46BB691343554A43F40033D361534AB9
:102370007B6953623B681A69504B5A614F4B514A13
:102380001A6097E00123FB773B689B68FB60FB6862
:102390001A1D4A4BDA623B681B7F1B061A46BB6953
:1023A0001343464A43F40033D361444A7B69536282
:1023B0003B681A69414B5A61FB681B88DBB2002BF2
:1023C00002D0012B0DD020E03C4BDA693F4B13408B
:1023D000FA685288013A12021146384A0B43D36117
:1023E0001AE03B681B7FFF2B01D10023FB77334BA7
:1023F000DA69364B1340FA685288013A12021343E5
:102400002E4A43F01003D36106E0314B314A40F2CB
:102410001111314821F0BCFF284BDB69274A43F0FA
:102420002003D361254BDB6903F02003002B14BF8D
:1024300001230023DBB2002B00D0F3E71F4B102257
:102440009A60FB7F002B03D01C4B1E4A1A6031E0C0
:102450001A4B224A1A602DE03B681B7F1B061A4666
:10246000BB691343154A43F40033D361134A7B69B4
:1024700053623B681A69114B5A61104B114A1A603A
:1024800018E03B681B7F1B061A46BB6913430B4AC7
:1024900043F40033D3613B685A7F3B689B7F9A4289
:1024A00003D0064B0D4A1A6003E0044B40F20122B0
:1024B0001A6000BF00BF2437BD4690BD0010005217
:1024C0000A0002000102020009000200EF00FFFF03
:1024D0004458020860580208B0570208010201007F
:1024E00090B585B000AF786039603B689B7F194636
:1024F0007868FFF74BFEF8603B4AFB6853633B6824
:10250000DB8A1A463B689B8A1B041A43364B5A6483
:102510003B681A69344BDA633B685B8B1A463B684D
:102520009B8AD21A304B1A643B681B68082B2ED149
:102530003B685B8B1A463B689B8AD21A2A4B9A618E
:102540003B685B8B1A463B689B8AD21A264B1A6102
:10255000254AFB6853623B681B7F1B061946224ACB
:10256000224B0B43D3613B680C331F4C1846FFF7DB
:102570007BFC034623623B681A691B4B5A613B682C
:102580001A69194BDA60184B194A1A6027E0164A83
:10259000FB68D361144B00221A613B680C33184668
:1025A000FFF762FC03461B0A03F478443B680C33D4
:1025B0001846FFF759FC03465B0903F4FC631C4310
:1025C0003B680C331846FFF74FFC0346DB0803F06B
:1025D0001F03054A23439363034B064A1A6000BF57
:1025E0001437BD4690BD00BF001000520900010025
:1025F000010202000102030080B582B000AF7860E2
:10260000054A7B681A607B681846FFF739FC7B68CF
:1026100018460837BD4680BD1879020880B582B0DB
:1026200000AF78607868FFF7E7FF1421786821F041
:1026300080FE7B6818460837BD4680BD80B483B0F5
:1026400000AF78607B6800221A807B6800225A8085
:102650007B6800229A807B680022DA807B681846BB
:102660000C37BD465DF8047B7047000080B483B032
:1026700000AF7860044A7B68136000BF0C37BD462A
:102680005DF8047B704700BF58AB002480B483B072
:1026900000AF7860044A7B681A607B6818460C3784
:1026A000BD465DF8047B7047EC64020880B582B0DB
:1026B00000AF78607868FFF7E9FF0421786821F0BF
:1026C00038FE7B6818460837BD4680BD80B485B0AB
:1026D00000AFF860B9607A603B600B4AFB681A6033
:1026E000FB68BA685A60FB687A689A60FB683A6867
:1026F000DA60FB68BA691A61FB6818461437BD4690
:102700005DF8047B704700BFDC64020880B483B0CE
:1027100000AF7860044A7B681A607B6818460C3703
:10272000BD465DF8047B7047DC64020880B582B06A
:1027300000AF78607868FFF7E9FF1421786821F02E
:10274000F8FD7B6818460837BD4680BD80B483B06D
:1027500000AF7860396000BF0C37BD465DF8047B80
:10276000704780B483B000AF7860396000BF0C3729
:10277000BD465DF8047B704780B483B000AF7860DD
:10278000396000BF0C37BD465DF8047B704780B4EC
:1027900083B000AF78600B46FB7000BF0C37BD46BE
:1027A0005DF8047B704780B483B000AF786000BFF1
:1027B0000C37BD465DF8047B704780B483B000AF32
:1027C000786000BF0C37BD465DF8047B70470000A1
:1027D00080B483B000AF7860044A7B681A607B687D
:1027E00018460C37BD465DF8047B7047B464020898
:1027F00080B582B000AF78607868FFF7E9FF042108
:10280000786821F096FD7B6818460837BD4680BD84
:1028100080B483B000AF7860044A7B681A607B683C
:1028200018460C37BD465DF8047B7047D47D02081E
:1028300080B582B000AF78607868FFF7E9FF0821C3
:10284000786821F076FD7B6818460837BD4680BD64
:1028500080B483B000AF78600B46FB7000BF0C37CC
:10286000BD465DF8047B704780B483B000AF7860EC
:1028700039607B683A6803F596731068516803C342
:1028800000BF0C37BD465DF8047B704780B483B051
:1028900000AF7860044A7B681A607B6818460C3782
:1028A000BD465DF8047B70479C64020880B582B029
:1028B00000AF78607868FFF7E9FF0421786821F0BD
:1028C00038FD7B6818460837BD4680BD80B483B0AC
:1028D00000AF78607B6800221A807B6800225A80F3
:1028E0007B6800229A807B680022DA807B68002265
:1028F0001A817B6800225A817B6800229A817B685A
:1029000000229A737B6818460C37BD465DF8047B3D
:10291000704780B582B000AF78607B681846FFF7DB
:10292000D5FF7B6800221A617B6800229A827B684F
:1029300018460837BD4680BD80B584B000AFF8604A
:10294000B9607A603B60554AFB681A60FB68BA68F8
:102950005A60FB687A689A60FB683A68DA60FB68DC
:1029600000221A61FB6800225A61FB6800229A610A
:10297000FB681C331846FFF7CCFFFB68002283F886
:102980003420FB6800229A63FB680022DA63FB684C
:1029900000221A64FB6800225A64FB68002283F854
:1029A0004820FB68012283F84920FB68002283F855
:1029B0004A20FB68002283F84B20FB680022DA647F
:1029C000FB6850331846FFF739FEFB6800229A6512
:1029D000FB680022DA65FB6800221A66FB680122A8
:1029E00083F86420FB68002283F86520FB680022DE
:1029F00083F86620FB68012283F86720FB680022C9
:102A000083F86820FB68002283F86920FB680022B5
:102A100083F86A20FB68002283F86B20FB680022A1
:102A200083F86C20FB6800221A67FB68002283F899
:102A30007420FB68002283F87520FB68002283F86D
:102A40007620FB68012283F87720FB68012283F857
:102A50007820134AFB681360124A3B8B1380114B9A
:102A60001A88114B1A80114ABB8B13800F4B1A889E
:102A70000F4B1A800F4B00221A703A8BBB8B9A4275
:102A800034BF01230023DBB21A46FB6883F83420ED
:102A9000FB6818461037BD4680BD00BF7073020842
:102AA000FCAA0024F0AA0024F6AA0024F2AA00241A
:102AB000F8AA0024F4AA002480B582B000AF7860A0
:102AC000054A7B681A607B681846FFF781FE7B68C1
:102AD00018460837BD4680BDC07E020880B582B06A
:102AE00000AF78607868FFF7E7FF4FF49C71786873
:102AF00021F01FFC7B6818460837BD4680BD80B5B5
:102B000082B000AF7860786800F004F800BF083742
:102B1000BD4680BD80B582B000AF78607B68D3F8D9
:102B20003C31002B0FD07B68D3F83C217B68D3F875
:102B30003C311B680C331B68104698470346002B3A
:102B400001D0012300E00023002B0ED07B68D3F8D6
:102B50003C217B68D3F83C311B6808331B68104666
:102B600098477B680022C3F83C2100BF0837BD4668
:102B700080BD000080B582B000AF7860054A7B68F8
:102B80001A607B681846FFF797FF7B68184608377E
:102B9000BD4680BD5864020880B582B000AF786041
:102BA0007868FFF7E7FF4FF4A071786821F0C1FB68
:102BB0007B6818460837BD4680BD000080B582B0EE
:102BC00000AF7860084A7B681A607B6803F5A073E1
:102BD000184600F0E9FA7B681846FFF7CBFF7B68E0
:102BE00018460837BD4680BDFC63020880B582B038
:102BF00000AF78607868FFF7E1FF4FF4AC71786858
:102C000021F097FB7B6818460837BD4680BD000061
:102C100080B582B000AF7860054A7B681A607B6837
:102C20001846FFF7CBFF7B6818460837BD4680BDC6
:102C3000B863020880B582B000AF78607868FFF7AB
:102C4000E7FF4FF4AC71786821F073FB7B6818469E
:102C50000837BD4680BD80B582B000AF78607B6824
:102C6000D3F85431184602F063FE7B68184612F020
:102C700025FA00BF0837BD4680BD80B582B000AFE1
:102C8000786039603B68184601F090FA00BF083759
:102C9000BD4680BD80B586B002AFF860B9607A608D
:102CA0003B60F868BB6900933B687A68B968FFF7D6
:102CB0000DFD044AFB681A60FB6818461037BD46D4
:102CC00080BD00BFA463020880B500AF014800F0DA
:102CD0005FF980BD6C01002480B500AF124B1B78FA
:102CE000BFF35B8FDBB203F00103002B0CBF0123AA
:102CF0000023DBB2002B13D00B4821F01CFB034652
:102D0000002B14BF01230023DBB2002B08D007489F
:102D100000F068F8044821F01AFB054821F056FB42
:102D2000024B184680BD00BF840400246C010024BF
:102D3000C92C000880B582B000AF7860054A7B6876
:102D40001A607B681846FFF7E1FC7B681846083775
:102D5000BD4680BDA463020880B582B000AF786034
:102D60007868FFF7E7FF1421786821F0E2FA7B68C2
:102D700018460837BD4680BD80B582B000AF786088
:102D80007B6818460EF09AFF034A7B681A607B68DE
:102D900018460837BD4680BD7063020880B582B012
:102DA00000AF78607B6818460EF088FF034A7B68A6
:102DB0001A607B6818460837BD4680BD3C63020830
:102DC00080B582B000AF78607B6818460EF076FF61
:102DD000034A7B681A607B6818460837BD4680BD89
:102DE0000863020890B585B002AF786078687B68A8
:102DF00003F114017B6803F12C027B6803F5B074C6
:102E00007B6803F5E07300932346FFF743FF184AFE
:102E10007B681A607B6814331846FFF7ADFF7B6848
:102E20002C331846FFF7BAFF7B6803F5B0731846DA
:102E3000FFF7C6FF7B6803F5DE73184602F06AFDF4
:102E40007B6803F5E0707B6803F5DE737A681946EA
:102E500002F04AFD7A687B6803F5E0731946104674
:102E6000FFF70BFF7B6818460C37BD4690BD00BFCF
:102E7000F462020880B586B002AFF860B9607A608B
:102E80003B60F868BB8B01933B8B00933B687A688F
:102E9000B968FFF751FD044AFB681A60FB681846E1
:102EA0001037BD4680BD00BF0065020880B586B002
:102EB00002AFF860B9607A603B60F868BB8B019341
:102EC0003B8B00933B687A68B968FFF7D3FF044AED
:102ED000FB681A60FB6818461037BD4680BD00BF0E
:102EE000B061020880B483B000AF7860044A7B68A8
:102EF0001A607B6818460C37BD465DF8047B704746
:102F00009861020880B582B000AF78607B6818468F
:102F1000FFF7E8FF034A7B681A607B6818460837AA
:102F2000BD4680BD8061020890B585B002AF00F05B
:102F30004FFD044600F056FD03461946002300935A
:102F400000230022204615F09DF90948FFF78EFB6B
:102F5000002002F017FC074815F0D6F8FFF7BCFE7A
:102F600078600548FEF7B8FD00BF0C37BD4690BD40
:102F700024110024080000242811002480B500AF8B
:102F800002480FF0C8F900BF80BD00BF281100241F
:102F900080B582B000AF7860104A7B681A607B68A9
:102FA00003F5E0731846FFF733FE7B6803F5B07353
:102FB000184600F027F87B682C33184600F044F8D8
:102FC0007B681433184600F063F87B681846FFF7F7
:102FD000B1FE7B6818460837BD4680BDF462020822
:102FE00080B582B000AF78607868FFF7D1FF4FF40A
:102FF0004671786821F09DF97B6818460837BD4610
:1030000080BD000080B582B000AF7860054A7B6863
:103010001A607B6818460EF04FFE7B68184608372A
:10302000BD4680BD0863020880B582B000AF7860FD
:103030007868FFF7E7FF5C21786821F07AF97B6810
:1030400018460837BD4680BD80B582B000AF7860B5
:10305000054A7B681A607B6818460EF02DFE7B6877
:1030600018460837BD4680BD3C63020880B582B073
:1030700000AF78607868FFF7E7FF4FF49A717868DF
:1030800021F057F97B6818460837BD4680BD00001F
:1030900080B582B000AF7860054A7B681A607B68B3
:1030A00018460EF009FE7B6818460837BD4680BDFD
:1030B0007063020880B582B000AF78607868FFF76F
:1030C000E7FF1821786821F034F97B681846083743
:1030D000BD4680BD80B582B000AF7860054A7B6890
:1030E0001A607B681846FFF793FB7B681846083721
:1030F000BD4680BD0890020880B582B000AF786000
:103100007868FFF7E7FF7821786821F012F97B688B
:1031100018460837BD4680BD80B584B002AF7860E0
:1031200039607B68012B19D13B684FF6FF729342DF
:1031300014D11848FFF7E6FE1748FEF75DFF174861
:1031400018F068F94FF4887301934FF4F07300930B
:10315000104B124A10491248FFF7A8FE7B68002B5B
:1031600013D13B684FF6FF7293420ED10C48FEF725
:103170002BFD0C4800F03AF80848FFF7ABFF064873
:10318000FEF764FF0348FEF7ADFA00BF0837BD46FF
:1031900080BD00BF880400248C040024AC100024EF
:1031A000281100240800002480B582B000AF7860A8
:1031B000054A7B681A607B681846FFF767FB7B68E7
:1031C00018460837BD4680BD4064020880B582B00D
:1031D00000AF78607868FFF7E7FF1021786821F08A
:1031E000A8F87B6818460837BD4680BD80B582B018
:1031F00000AF7860054A7B681A607B681846FFF765
:1032000045FA7B6818460837BD4680BDD065020880
:1032100080B582B000AF78607868FFF7E7FF0421DF
:10322000786821F086F87B6818460837BD4680BD6F
:1032300080B483B000AF7860012318460C37BD46D8
:103240005DF8047B704780B483B000AF786054238E
:1032500018460C37BD465DF8047B704780B483B0D8
:1032600000AF78600B467B807B88542202FB03F31F
:1032700008337A68134418460C37BD465DF8047B62
:10328000704780B483B000AF78600B467B807B884A
:10329000542202FB03F308337A68134418460C37B0
:1032A000BD465DF8047B704780B483B000AF7860A2
:1032B000012318460C37BD465DF8047B704780B487
:1032C00083B000AF78604FF4967318460C37BD4654
:1032D0005DF8047B704780B483B000AF78600B4624
:1032E0007B807B884FF4967202FB03F308337A6885
:1032F000134418460C37BD465DF8047B704780B414
:1033000083B000AF78600B467B807B884FF4967269
:1033100002FB03F308337A68134418460C37BD46A2
:103320005DF8047B704780B483B000AF7860012300
:1033300018460C37BD465DF8047B704780B483B0F7
:1033400000AF7860102318460C37BD465DF8047B4B
:10335000704780B483B000AF78600B467B807B8879
:103360001B0108337A68134418460C37BD465DF8D4
:10337000047B704780B483B000AF78600B467B80DD
:103380007B881B0108337A68134418460C37BD4606
:103390005DF8047B704780B582B000AF78607B68D1
:1033A0005B687A68D268521099187B68DB6803F012
:1033B0000103002B02D17B689B680AE07B685B6895
:1033C0007A68D268521013441B687A689268134472
:1033D0001B680846984700BF0837BD4680BD80B4CB
:1033E00083B000AF78607B685B68002B10D07B688F
:1033F0009B68002B07D17B68DB6803F00103002B7F
:1034000001D1012300E00023012B01D0012300E0C2
:10341000002318460C37BD465DF8047B704780B525
:1034200000AF4FF6FF710120FFF776FE80BD80B53B
:1034300000AF4FF6FF710020FFF76EFE80BD80B534
:1034400082B000AF78607B681B6820331B687868A7
:10345000984700BF0837BD4680BD80B483B000AF39
:1034600078607B6893F866300133DAB27B6883F862
:10347000662000BF0C37BD465DF8047B7047000036
:1034800080B483B000AF0346FB80B7F90630002B51
:103490000BDBFB8803F01F020749B7F906305B0915
:1034A000012000FA02F241F8232000BF0C37BD468C
:1034B0005DF8047B704700BF00E100E080B483B09A
:1034C00000AF0346FB80B7F90630002B12DBFB8808
:1034D00003F01F020A49B7F906305B09012000FA20
:1034E00002F2203341F82320BFF34F8F00BFBFF318
:1034F0006F8F00BF00BF0C37BD465DF8047B70477F
:1035000000E100E080B483B000AF03463960FB8087
:10351000B7F90630002B0ADB3B68DAB20C49B7F981
:1035200006301201D2B20B4483F800230AE03B6854
:10353000DAB20849FB8803F00F03043B1201D2B250
:103540000B441A7600BF0C37BD465DF8047B70470C
:1035500000E100E000ED00E0B0B582B000AF7860BF
:103560007B6818460EF0C5FE7D687B681B6860337B
:103570001C6811F0CFFE034619462846A04778681C
:103580007B681B6884331C680023044A4FF0504159
:10359000A04700BF0837BD46B0BD00BF000020D027
:1035A00080B582B000AF786009215A20FFF7AAFFEA
:1035B00009215820FFF7A6FF00BF0837BD4680BD90
:1035C00080B582B000AF78605A20FFF759FF5820CD
:1035D000FFF756FF00BF0837BD4680BD80B582B0FB
:1035E00000AF78605A20FFF769FF5820FFF766FFA9
:1035F00000BF0837BD4680BD80B483B000AF78609F
:10360000114BDB689BB2C3F30A039BB2013B9AB236
:103610000E4B1A800C4B1B699BB2C3F30A039BB27F
:10362000013B9AB20A4B1A80084B1A88064B1A645F
:10363000054B5B6B044A43F00103536300BF0C3737
:10364000BD465DF8047B704700100050A4110024B3
:10365000A611002480B582B000AF78607B68184660
:103660000EF02EFE034618460837BD4680BD80B5D5
:1036700082B000AF78607B6818460EF02DFE00BF68
:103680000837BD4680BD000080B483B000AF7860CD
:10369000034B9B6A18460C37BD465DF8047B7047A8
:1036A0008410005080B483B000AF78603960064A5F
:1036B0003B689362054B01225A6200BF0C37BD463E
:1036C0005DF8047B704700BF84100050001000506C
:1036D00080B586B000AF786039607B68396818467D
:1036E0000EF0B8FD254B5B6903F48033002B14BF4B
:1036F00001230023DBB2002B3CD0204B0022C3F877
:103700008420BFF34F8F00BF1C4BD3F880307B6108
:103710007B695B0BC3F30E033B617B69DB08C3F37F
:103720000903FB603B695A0143F6E0731340FA68F2
:10373000920712491343C1F87432FB685A1EFA60AB
:10374000002B14BF01230023DBB2002B00D0E9E7DC
:103750003B695A1E3A61002B14BF01230023DBB2E0
:10376000002B00D0D9E7BFF34F8F00BFBFF36F8F9F
:1037700000BF00BF00BF1837BD4680BD00ED00E0B0
:1037800080B584B000AFF860B9607A603B60F868DB
:103790003B687A68B9680EF0C8FE034618461037D1
:1037A000BD4680BD80B487B000AF7860264B5B69B2
:1037B00003F48033002B14BF01230023DBB2002B62
:1037C0003CD0214B0022C3F88420BFF34F8F00BFB1
:1037D0001D4BD3F880307B617B695B0BC3F30E0319
:1037E0003B617B69DB08C3F30903FB603B695A015A
:1037F00043F6E0731340FA68920713491343C1F884
:103800007432FB685A1EFA60002B14BF0123002398
:10381000DBB2002B00D0E9E73B695A1E3A61002B6E
:1038200014BF01230023DBB2002B00D0D9E7BFF384
:103830004F8F00BFBFF36F8F00BF00BF00BF1C37AB
:10384000BD465DF8047B704700ED00E080B487B0B2
:1038500000AF7860264B5B6903F48033002B14BF04
:1038600001230023DBB2002B3CD0214B0022C3F804
:103870008420BFF34F8F00BF1D4BD3F880307B6196
:103880007B695B0BC3F30E033B617B69DB08C3F30E
:103890000903FB603B695A0143F6E0731340FA6881
:1038A000920713491343C1F87432FB685A1EFA6039
:1038B000002B14BF01230023DBB2002B00D0E9E76B
:1038C0003B695A1E3A61002B14BF01230023DBB26F
:1038D000002B00D0D9E7BFF34F8F00BFBFF36F8F2E
:1038E00000BF00BF00BF1C37BD465DF8047B7047BA
:1038F00000ED00E080B582B000AF78601A4B1B6C21
:103900001A4A128893420CBF01230023DBB2002B1A
:1039100017D0174B1B88194678680AF01DF9FEF777
:1039200031FB03461846FFF798FDFEF725FAFEF730
:1039300029FB034618460FF0D1FA0020FDF7F4FEEC
:103940000EE00A4B1B88194678680AF005F900203A
:10395000FDF706FFFEF716FB03461846FFF76FFD5F
:1039600000BF0837BD4680BD00100050A4110024E0
:10397000A611002480B582B000AF78600B467B8032
:103980007B88032B1ED801A252F823F09D39000832
:10399000A7390008B1390008BB39000801F06AFFF7
:1039A00003461B680FE001F065FF03465B680AE011
:1039B00001F060FF03469B6805E001F05BFF0346F2
:1039C000DB6800E0002318460837BD4680BD00BF15
:1039D00080B400AF024B1846BD465DF8047B7047CB
:1039E000DC65020880B400AF02231846BD465DF8CE
:1039F000047B704780B483B000AF7860044A7B6872
:103A00001A607B6818460C37BD465DF8047B70472A
:103A1000186C020880B582B000AF78607868FFF754
:103A2000E9FF1021786820F084FC7B68184608378D
:103A3000BD4680BD90B587B000AF78600B467B80F7
:103A40007B88002B01D1002310E000233B61002381
:103A5000FB737B681B6808331C6807F10F0307F1D1
:103A6000100279887868A04778617B6918461C370E
:103A7000BD4690BD80B483B000AF78607B685B8941
:103A800018460C37BD465DF8047B704780B483B0A0
:103A900000AF78607B689B8918460C37BD465DF89F
:103AA000047B704780B483B000AF78607B689B88EC
:103AB00018460C37BD465DF8047B704780B483B070
:103AC00000AF78607B689A887B689B799BB21344CF
:103AD0009BB218460C37BD465DF8047B704780B436
:103AE00083B000AF78607B68DB79C3F30603DBB299
:103AF00018460C37BD465DF8047B704780B483B030
:103B000000AF78607B68DB79C3F3C013DBB2184683
:103B10000C37BD465DF8047B7047000080B582B06D
:103B200000AF7860054A7B681A607B681846FFF72B
:103B300061FF7B6818460837BD4680BD3C8102089E
:103B400080B582B000AF78607868FFF7E7FF182192
:103B5000786820F0EEFB7B6818460837BD4680BDCC
:103B600080B582B000AF7860054A7B681A607B68D8
:103B70001846FFF7D3FF7B6818460837BD4680BD5F
:103B8000C866020880B582B000AF78607868FFF739
:103B9000E7FF2821786820F0CCFB7B6818460837BF
:103BA000BD4680BD80B483B000AF7860044A7B68B6
:103BB0001A607B6818460C37BD465DF8047B704779
:103BC0000C66020880B582B000AF78607868FFF7B5
:103BD000E9FF0821786820F0ACFB7B6818460837BD
:103BE000BD4680BD80B483B000AF786039603B686B
:103BF00018460C37BD465DF8047B704780B483B02F
:103C000000AF7860044A7B681A607B6818460C37FE
:103C1000BD465DF8047B7047D880020880B582B04D
:103C200000AF78607868FFF7E9FF2821786820F016
:103C300080FB7B6818460837BD4680BD80B483B0E2
:103C400000AF7860002318460C37BD465DF8047B52
:103C5000704780B584B000AFF860084611461A4638
:103C600003467B810B463B811346FB80B7F9082056
:103C7000B7F90A301946F86800F02AF8B7F91820A1
:103C8000B7F906301946F86800F07EF800BF103723
:103C9000BD4680BD80B483B000AF78600B467B80AA
:103CA0007B687A889A8000BF0C37BD465DF8047B3C
:103CB000704780B483B000AF78600B467B807B6830
:103CC0007A88DA8000BF0C37BD465DF8047B704708
:103CD00080B582B000AF78600B467B8013463B8096
:103CE0007B681B682C331B68B7F902201146786883
:103CF00098477B681B6830331B68B7F90020114672
:103D00007868984700BF0837BD4680BD80B483B04F
:103D100000AF78600B467B807B687A881A8100BF91
:103D20000C37BD465DF8047B704780B483B000AFAC
:103D300078600B467B807B687A885A8100BF0C379D
:103D4000BD465DF8047B704780B483B000AF7860F7
:103D500000BF0C37BD465DF8047B704780B483B06C
:103D600000AF7860396000BF0C37BD465DF8047B5A
:103D7000704780B483B000AF7860396000BF0C3703
:103D8000BD465DF8047B704780B582B000AF7860B7
:103D90000B467B8013463B807B681B6834331B6873
:103DA000B7F902201146786898477B681B6838335A
:103DB0001B68B7F9002011467868984700BF08379C
:103DC000BD4680BD80B483B000AF7860396000BF6D
:103DD0000C37BD465DF8047B704780B483B000AFFC
:103DE000786000BF0C37BD465DF8047B704780B437
:103DF00083B000AF78607B6893F8253018460C37A5
:103E0000BD465DF8047B704780B483B000AF786036
:103E10007B6893F8243018460C37BD465DF8047B68
:103E2000704780B582B000AF78600B467B80134648
:103E30003B807B681B6850331B6879887A68B2F9CD
:103E4000042092B28A1A92B210B239887A68B2F912
:103E5000062092B28A1A92B212B201467868984746
:103E600000BF0837BD4680BD80B483B000AF786026
:103E70007B684FF6FF729A817B684FF6FF721A8457
:103E80007B684FF6FF725A8400BF0C37BD465DF861
:103E9000047B704780B584B000AFF860B9607A6089
:103EA000F868FFF7E1FF7B681A68FB68DA617B68F6
:103EB000FA681A6000BF1037BD4680BD80B400AFFD
:103EC0000B4B1B6893F87630002B08D0084B1B680F
:103ED000DB6C002B03D0064B1B68DB6C02E0044B51
:103EE0001B689B681846BD465DF8047B704700BFA1
:103EF000FCAA002480B483B000AF7860074A7B68D6
:103F00001A607B6800225A607B6800221A727B6804
:103F100018460C37BD465DF8047B7047A46602085E
:103F200080B483B000AF7860044A7B681A607B6815
:103F300018460C37BD465DF8047B7047A46602083E
:103F400080B582B000AF78607868FFF7E9FF0C2198
:103F5000786820F0EEF97B6818460837BD4680BDCA
:103F600080B483B000AF786000BF0C37BD465DF809
:103F7000047B704780B483B000AF786000BF0C371B
:103F8000BD465DF8047B704780B483B000AF7860B5
:103F900000BF0C37BD465DF8047B704780B582B02A
:103FA00000AF786011F0B6F903461A683032126833
:103FB0001846904700BF0837BD4680BD80B483B027
:103FC00000AF786039607B683A685A6000BF0C3790
:103FD000BD465DF8047B704780B582B000AF786065
:103FE0007B68184611F0B8F9094A7B681A607B684B
:103FF0000022C3F838217B680022C3F83C217B688B
:10400000044A13607B6818460837BD4680BD00BF70
:104010005864020848AB002480B483B000AF7860D5
:1040200039607B683A681A6000BF0C37BD465DF89E
:10403000047B704780B483B000AF78607B68012256
:104040001A7200BF0C37BD465DF8047B704780B51F
:1040500084B000AFF8607B600B467B8113463B81E8
:10406000FB681846FFF7C3FE0346002B08D0FB6829
:104070001846FFF7C9FE0346002B01D0012300E0DC
:104080000023002B02D0FA687B681A6000BF10374B
:10409000BD4680BD80B483B000AF786039607B6876
:1040A0003A685A6000BF0C37BD465DF8047B704724
:1040B00080B582B000AF7860054A7B681A607B6883
:1040C0001846FFF79BFD7B6818460837BD4680BD44
:1040D0001C66020880B582B000AF78607868FFF790
:1040E000E7FF2821786820F024F97B681846083714
:1040F000BD4680BD80B584B000AFF860B9607A601D
:10410000FB681846FFF768FF134AFB681A60FB68F4
:1041100003F5A073184600F09FF8FB687A68C3F8AF
:104120005021FB68BA68C3F85421FDF72BFF034602
:104130001A6808321268002118469047002001F0E2
:1041400021FBFFF7BBFE0346184618F0AEFFFB68E5
:1041500018461037BD4680BDFC63020880B483B0AA
:1041600000AF786039607B6818460C37BD465DF853
:10417000047B704780B582B000AF786039607B689F
:104180003A6811461846FFF7E9FF3B685A687B68B2
:104190005A607B683A680833083292E8030083E883
:1041A00003007B6818460837BD4680BD90B589B0CE
:1041B00000AF78607B6803F5A074104BBB610023EF
:1041C000FB6107F1080007F118030CCB796800F0D8
:1041D0005FF807F1080319462046FFF7CBFF07F108
:1041E00008031846FEF7E0FF7B6803F5A0727B68C2
:1041F000C3F83C2100BF2437BD4690BD01420008F2
:1042000080B584B002AF78607B6803F59C717B68F1
:10421000D3F850311A467B68D3F854310093044BDD
:10422000044800F067F800BF0837BD4680BD00BFF6
:104230003CAB002438AB002480B483B000AF78607E
:10424000044A7B681A607B6818460C37BD465DF8E7
:10425000047B70479C64020880B582B000AF786030
:104260007B681846FFF7E8FF084A7B681A607B689E
:1042700000225A607B6800229A607B680022DA6024
:104280007B6818460837BD4680BD00BF4064020801
:1042900080B584B000AFF860B960394681E80C00A1
:1042A000FB681846FFF7C8FF084AFB681A60FB68FE
:1042B000BA685A60FB6808333A4692E8030083E81C
:1042C0000300FB6818461037BD4680BD40640208F5
:1042D00080B582B000AF78607B681846FFF70AFEB1
:1042E000034A7B681A607B6818460837BD4680BD64
:1042F0008066020890B58FB000AFF860B9607A6050
:104300003B607B689A687B689B681B6820331B68EE
:10431000104698470346B3F5967F05D27E4B7F4AF9
:10432000A3217F4820F034F800BF7B685A687B687F
:104330005B681B6820331B681046984703460F2BA9
:1043400005D8784B754AA421754820F021F800BFA4
:104350007B68DA687B68DB681B6820331B68104663
:10436000984703460B2B05D86F4B6C4AA5216C4828
:1043700020F00EF800BFFB68BB62BB687B623B6845
:104380003B6210F0C7FF0346184610F0C9FF3B6AB6
:104390001B68002B08D03B6A1A683B6A1B681B68C5
:1043A0000C331B68104698473B6A1B68002B07D0EC
:1043B0003B6A1A683B6A1B681B681B681046984773
:1043C000BB6A1B68002B08D0BB6A1A68BB6A1B68F3
:1043D0001B6814331B68104698477B6A1B68002BC8
:1043E00008D07B6A1A687B6A1B681B6804331B68E9
:1043F00010469847BB6A1B68002B07D0BB6A1A6837
:10440000BB6A1B681B681B68104698477B6A1B6861
:10441000002B08D07B6A1A687B6A1B681B6808330C
:104420001B681046984700BF7B68DB680021184670
:1044300000F07CF8034619460C20FFF7D3FB044636
:104440002046FFF745FF7C637B689B680021184688
:1044500000F07FF8034619464FF49670FFF7C2FB51
:104460000446204601F072FB3C637B685B680021D8
:10447000184600F081F8034619461020FFF7B2FBFA
:104480000446396B204601F009FBFC623B687A6BFD
:104490001A60BB68FA6A1A60FB683A6B1A60FB6ABA
:1044A000002B02D0FB6A043300E000231946B86CED
:1044B000FFF7B2FDFB6A0433B96C1846FFF7EAFD5B
:1044C0003B6BF96A184600F06AF83B6BFB61FB6ACC
:1044D000BB617B6B7B61FB691B680C331B68F869F4
:1044E0009847BB691B681B68B86998477969F86980
:1044F00012F0D4FA7B691B6810331B6878699847FF
:104500007B691B6814331B687869984700BFFB6A96
:1045100018463C37BD4690BDA058020830590208E5
:10452000345A02088C5A0208305B020880B582B007
:1045300000AF78600B467B807B681B6824331B6868
:104540007A88114678689847034618460837BD466A
:1045500080BD80B582B000AF78600B467B807B6801
:104560001B6824331B687A8811467868984703468D
:1045700018460837BD4680BD80B582B000AF786070
:104580000B467B807B681B6824331B687A88114646
:1045900078689847034618460837BD4680BD80B402
:1045A00083B000AF786039607B683A68DA6300BF37
:1045B0000C37BD465DF8047B7047000080B582B0C3
:1045C00000AF7860054A7B681A607B681846FFF781
:1045D000A7FC7B6818460837BD4680BD8066020888
:1045E00080B582B000AF78607868FFF7E7FF0C21F4
:1045F00078681FF09EFE7B6818460837BD4680BD70
:1046000080B483B000AF78607B681B6A18460C37B3
:10461000BD465DF8047B704780B483B000AF78601E
:104620007B685B6A18460C37BD465DF8047B7047B3
:1046300080B58CB008AFF860B96011461A460B46D9
:10464000FB801346BB80F868B988FA883B8F0693D5
:10465000BB8E059397F82830049397F82430039382
:1046600097F8203002933B7F01933B7E00930B46EB
:10467000B96811F07BFE0A4AFB681A60FB68FA6AA7
:104680009A61FB683A6BDA61FB68FA6B1A62FB6845
:104690003A6C5A62FB6818461037BD4680BD00BFB1
:1046A000C866020880B485B000AF786039607B6866
:1046B0009B69FB603B689B88DB0A9BB29B00FA68A6
:1046C00013441A683B681B68134418461437BD46E8
:1046D0005DF8047B704780B489B000AFF8600B468A
:1046E0007A607B817B68002B03D07B681B7B002B6F
:1046F00001D1002330E0FB68DA697B687B617B696C
:104700005B7B1B021BB203F4E06319B27B69DB7AAB
:104710001BB20B431BB29BB29B001344FB617B6833
:104720001B7B7B837B8B002B15D0FB691B887A89D5
:104730009A4203D1FB6993F902300DE0FB691B88B3
:104740007A899A4206D37B8B013B7B83FB690433D6
:10475000FB61E7E700BF002318462437BD465DF83C
:10476000047B704780B483B000AF786039607B68A9
:104770003A681A607B6818460C37BD465DF8047BC2
:10478000704780B483B000AF78600B467B807B6855
:104790007A881A807B6818460C37BD465DF8047B22
:1047A0007047000080B582B000AF7860144A7B6823
:1047B0001A607B6804331846FDF740FF7B680C33B2
:1047C0001846FDF73BFF7B6800225A617B68002298
:1047D0009A617B680022DA617B6800221A847B6818
:1047E00000225A847B68002283F824207B680122FF
:1047F00083F825207B6818460837BD4680BD00BF7A
:10480000D880020880B483B000AF78600B46FB709C
:104810007B68FA7883F8242000BF0C37BD465DF82A
:10482000047B704780B582B000AF7860064A7B6831
:104830001A607B680433184600F040FC7B68184619
:104840000837BD4680BD00BFD081020880B582B068
:1048500000AF78607868FFF7E5FF3C2178681FF0CB
:1048600068FD7B6818460837BD4680BD80B483B0BC
:1048700000AF786000BF0C37BD465DF8047B704721
:1048800080B483B000AF786000BF0C37BD465DF8E0
:10489000047B704780B483B000AF786000BF0C37F2
:1048A000BD465DF8047B704780B483B000AF78608C
:1048B00000BF0C37BD465DF8047B704780B483B001
:1048C00000AF78600B46FB7000BF0C37BD465DF84B
:1048D000047B704780B582B000AF786039607B6838
:1048E0000433396818460DF05BFA00BF0837BD463F
:1048F00080BD000080B582B000AF78607B6818464C
:10490000FFF750FF034A7B681A607B681846083738
:10491000BD4680BD1C66020880B582B000AF7860DD
:104920007B68184626231A4600211FF0BDFD7B68D0
:104930001846FFF7DFFF094A7B681A607B68FF2291
:1049400083F826207B68283300211846FFF70AFFEA
:104950007B6818460837BD4680BD00BFC07B020893
:1049600080B483B000AF786039607B683A689A623F
:1049700000BF0C37BD465DF8047B704780B582B040
:1049800000AF78607B68184626231A4600211FF086
:104990008BFD7B681846FFF7ADFF0A4A7B681A60FB
:1049A0007B6800229A627B68002283F82C207B6857
:1049B00001211846FFF726FF7B6818460837BD46D9
:1049C00080BD00BFEC79020880B483B000AF78608E
:1049D00039607B683A689A6200BF0C37BD465DF863
:1049E000047B704780B582B000AF7860054A7B6871
:1049F0001A607B681846FFF75BFB7B681846083730
:104A0000BD4680BDEC79020880B582B000AF786009
:104A10007868FFF7E7FF302178681FF08AFC7B6831
:104A200018460837BD4680BD80B582B000AF7860BB
:104A30007B681846FFF7A2FF0C4A7B681A607B6808
:104A40002E334FF6FF711846FFF79BFE7B6830331D
:104A50004FF6FF711846FFF794FE7B68FF2283F83C
:104A600032207B6818460837BD4680BD887C020826
:104A700080B483B000AF78600B467B80064A7B68C9
:104A80001A607B687A889A807B6818460C37BD4626
:104A90005DF8047B704700BF0C66020880B582B0E9
:104AA00000AF78607B68184626231A4600211FF065
:104AB000FBFC7B681846FFF71DFF144A7B681A60F1
:104AC0007B6828334FF6FF711846FFF7D1FF7B68EC
:104AD000303300211846FFF745FE7B6800229A8696
:104AE0007B68FF2283F836207B68002283F837201A
:104AF0007B68002283F838207B68002283F8392005
:104B00007B6818460837BD4680BD00BF187B020889
:104B100080B582B000AF7860084A7B681A607B6815
:104B200028331846FFF73EF87B681846FFF7C0FAAF
:104B30007B6818460837BD4680BD00BF187B020859
:104B400080B582B000AF78607868FFF7E1FF3C2164
:104B500078681FF0EEFB7B6818460837BD4680BDBD
:104B600080B582B000AF78607B681846FFF796FF8B
:104B7000054A7B681A607B680022DA637B68184606
:104B80000837BD4680BD00BF2C7D020880B483B0CD
:104B900000AF786039607B683A68DA6300BF0C3731
:104BA000BD465DF8047B704780B582B000AF786089
:104BB000054A7B681A607B681846FFF733FE7B68FE
:104BC00018460837BD4680BD7067020880B582B0C0
:104BD00000AF78607868FFF7E7FF402178681FF042
:104BE000A8FB7B6818460837BD4680BD80B582B0FB
:104BF00000AF7860124A7B681A607B6803F58C739B
:104C0000184600F039FA7B68CC33184600F0BCFA3D
:104C10007B689833184600F095FA7B686C33184629
:104C200000F06EFA7B684033184600F069FA7B6842
:104C30001846FFF7B9FF7B6818460837BD4680BDA8
:104C40002067020880B582B000AF78607868FFF70F
:104C5000CDFF4FF4947178681FF06BFB7B681846AA
:104C60000837BD4680BD80B483B000AF786000BF18
:104C70000C37BD465DF8047B7047000090B599B0D5
:104C800002AF78607B68184600F090F9AE4A7B6806
:104C90001A607B6840331846FFF73EFE7B686C3332
:104CA0001846FFF739FE7B6898331846FFF7BCFEBD
:104CB0007B68CC331846FFF753FF7B6803F58C7095
:104CC000A24B3B6100237B6107F110030CCB796899
:104CD00000F092F97B6803F140004FF48873009371
:104CE0004FF4F07300220021FEF7B3FF7B6803F15D
:104CF0004004002387F84130002387F84030002328
:104D000087F83F3097F841301B041A4697F8403037
:104D10001B021A4397F83F30134343F07F4207F1D9
:104D2000380311461846FFF71DFDBB6B1946204698
:104D3000FFF716FE7B6803F16C004FF48873009355
:104D40004FF4F07300220021FEF783FF7B6803F12C
:104D50006C04FF2387F84430FF2387F84330FF2398
:104D600087F8423097F844301B041A4697F84330CE
:104D70001B021A4397F84230134343F07F4207F176
:104D8000340311461846FFF7EDFC7B6B19462046AD
:104D9000FFF7E6FD7B689833D4224FF49B711846E9
:104DA000FEF796FF7B6803F1980407F118030021D2
:104DB0001846FFF7E6FC07F11C0301211846FFF730
:104DC000E0FC07F11C0207F11803194620460EF01B
:104DD00049FC7B6803F198027B6803F58C731946E4
:104DE0001046FFF7F1FD7B6803F1CC001A23009316
:104DF000D82363229621FEF72CFF7B6803F1CC04B5
:104E0000002387F84730002387F84630002387F8CF
:104E1000453097F847301B041A4697F846301B0276
:104E20001A4397F84530134343F07F4207F13003AC
:104E300011461846FFF796FC3B6BBC64FB60BB6CED
:104E4000FA681A6300BF7B68CC333B650023A7F880
:104E50004E303B6DB7F84E209A8600BF7B6803F555
:104E6000867407F1200301211846FFF701FE07F1C0
:104E700020037B65364B1B68002B05D1354B364A2A
:104E8000AE2136481FF084FA7B6D9A88344B1B881C
:104E90009A4205D3334B304AAF2130481FF078FA9D
:104EA00000BF314B1B68BA8C1146184600F0C0FC9D
:104EB000034600BF2D4A0521204613F017F907F1DC
:104EC00020031846FEF76EFE7B6803F1CC027B6878
:104ED00003F5867319461046FFF758FE7B6803F109
:104EE000CC0407F1280300211846FFF7C1FD07F1A4
:104EF0002803194620460EF07EFB07F128031846CA
:104F0000FEF750FE7A687B68403319461046FFF77B
:104F1000E1FC7A687B686C3319461046FFF7DAFCCF
:104F20007A687B68983319461046FFF7D3FC7A6895
:104F30007B68CC3319461046FFF7CCFC7B681846DB
:104F40005C37BD4690BD00BF20670208854F000852
:104F50004CAB0024FC5C0208405D0208705D020856
:104F600050AB0024C85D020858AB00241C5E020848
:104F700080B483B000AF786000BF0C37BD465DF8E9
:104F8000047B704780B582B000AF786039607B6881
:104F900098333A689A4205D17B681B682C331B68AA
:104FA0007868984700BF0837BD4680BD80B582B09D
:104FB00000AF78607B68184611F0C4FB054A7B6837
:104FC0001A607B680022DA637B6818460837BD46A2
:104FD00080BD00BF7067020880B483B000AF786006
:104FE000044A7B681A607B6818460C37BD465DF83A
:104FF000047B7047A467020880B584B000AFF860F6
:10500000B960394681E80C00FB681846FFF7E4FFF9
:10501000084AFB681A60FB68BA685A60FB68083384
:105020003A4692E8030083E80300FB68184610370D
:10503000BD4680BD5867020880B483B000AF786079
:10504000044A7B681A607B6818460C37BD465DF8D9
:10505000047B7047A467020880B582B000AF786017
:105060007868FFF7E9FF042178681FF062F97B6830
:1050700018460837BD4680BD80B582B000AF786065
:10508000054A7B681A607B681846FFF7D5FF7B6886
:1050900018460837BD4680BD5867020880B582B003
:1050A00000AF78607868FFF7E7FF102178681FF09D
:1050B00040F97B6818460837BD4680BD80B582B090
:1050C00000AF7860054A7B681A607B681846FEF777
:1050D00095FD7B6818460837BD4680BD48700208BC
:1050E00080B582B000AF78607868FFF7E7FF2C21C9
:1050F00078681FF01EF97B6818460837BD4680BDEA
:1051000080B582B000AF7860054A7B681A607B6822
:105110001846FEF7CDFF7B6818460837BD4680BDB0
:10512000C07B020880B582B000AF78607868FFF776
:10513000E7FF2C2178681FF0FCF87B6818460837D9
:10514000BD4680BD80B582B000AF7860054A7B68FF
:105150001A607B681846FFF745FC7B6818460837DD
:10516000BD4680BD887C020880B582B000AF786003
:105170007868FFF7E7FF342178681FF0DAF87B687A
:1051800018460837BD4680BD80B582B000AF786054
:10519000054A7B681A607B681846FFF7B9FC7B6894
:1051A00018460837BD4680BD2C7D020880B582B008
:1051B00000AF78607868FFF7E7FF402178681FF05C
:1051C000B8F87B6818460837BD4680BD80B582B008
:1051D00000AF786039607B685B687A68D26852108B
:1051E00098187B68DB6803F00103002B02D17B6811
:1051F0009B680AE07B685B687A68D2685210134447
:105200001B687A68926813441B683968984700BF26
:105210000837BD4680BD80B483B000AF78607B683E
:105220005B68002B10D07B689B68002B07D17B68E4
:10523000DB6803F00103002B01D1012300E0002310
:10524000012B01D0012300E0002318460C37BD4696
:105250005DF8047B7047000080B500AF0148FEF7A1
:105260007FFC80BDA811002480B58CB00CAF1F4B13
:105270001B78BFF35B8FDBB203F00103002B0CBF85
:1052800001230023DBB2002B2CD018481FF053F869
:105290000346002B14BF01230023DBB2002B21D0D7
:1052A000134B0A9300230993002308933F2307938A
:1052B000104B0693104B0593002304930023039394
:1052C0000123029304230193002300930A23012264
:1052D0000A490B48FFF7ACF904481FF038F80948B1
:1052E0001FF074F8064B1846BD4680BDD01100244F
:1052F000F06B0208FC9502080C960208F00600907C
:10530000A81100245952000880B500AF0148FEF7EB
:1053100027FC80BDD411002480B58CB00CAF1F4B8E
:105320001B78BFF35B8FDBB203F00103002B0CBFD4
:1053300001230023DBB2002B2CD018481EF0FBFF0A
:105340000346002B14BF01230023DBB2002B21D026
:1053500000230A9300230993002308933F23079314
:105360000F4B06930F4B05930023049300230393E5
:105370000123029304230193002300930A230122B3
:1053800009490A48FFF754F904481EF0E0FF0848AD
:105390001FF01CF8054B1846BD4680BDFC110024CB
:1053A000009602081096020800070090D41100240D
:1053B0000953000880B500AF0148FEF7D1FB80BD5E
:1053C0000012002480B58CB00CAF1F4B1B78BFF3CC
:1053D0005B8FDBB203F00103002B0CBF0123002322
:1053E000DBB2002B2CD018481EF0A5FF0346002B83
:1053F00014BF01230023DBB2002B21D000230A932A
:1054000000230993002308933F2307930F4B069330
:105410000F4B05930023049300230393012302936E
:1054200004230193002300931423152209490A48F9
:10543000FFF7FEF804481EF08AFF08481EF0C6FF7A
:10544000054B1846BD4680BD28120024049602086C
:10545000149602081007009000120024B5530008AB
:1054600080B500AF0148FEF77BFB80BD2C12002405
:1054700080B58CB00CAF1F4B1B78BFF35B8FDBB2DA
:1054800003F00103002B0CBF01230023DBB2002B30
:105490002CD018481EF04FFF0346002B14BF0123E9
:1054A0000023DBB2002B21D000230A9300230993B1
:1054B000002308933F2307930F4B06930F4B05934D
:1054C00000230493002303930123029304230193F5
:1054D000002300932823012209490A48FFF7A8F86E
:1054E00004481EF034FF08481EF070FF054B1846B4
:1054F000BD4680BD54120024089602081896020882
:10550000380800902C1200246154000880B485B043
:1055100000AFF8600B467A607B8100231846143791
:10552000BD465DF8047B704780B483B000AF7860FF
:10553000002318460C37BD465DF8047B704780B4E5
:1055400083B000AF7860002318460C37BD465DF885
:10555000047B704780B485B000AFF860B960134633
:10556000FB80074AFB681360064ABB681360064A63
:10557000FB88138000BF1437BD465DF8047B70477D
:105580004CAB002454AB002450AB00240EB480B5C7
:1055900085B000AF786007F12003BB60BB68FA6993
:1055A0000021786810F016FD0346FB81FB89184640
:1055B0001437BD46BDE8804003B070470CB480B5D9
:1055C00084B000AF78600B46FB7007F11C03BB6032
:1055D000F978BB68BA69786810F0FCFC0346FB8177
:1055E000FB8918461037BD46BDE8804002B07047C1
:1055F00080B58AB000AF78600B46FB707B685B6C4F
:10560000002B16D07B6822337B627B6ADB8A002BFF
:1056100005D1434B434AC02143481EF0B9FE7B6A83
:105620009B8A1A467B6A33F81230002B01D0012383
:1056300000E00023002B6AD0786811F09FFF7B68A0
:1056400022333B620123FB833B6ADB8AFA8B9A425B
:1056500005D3364B364AC52133481EF099FE3B6AC6
:105660009A8AFB8B1344BB83BB8B092B01D8BB8B62
:1056700001E0BB8B0A3B3A6A32F8133040F63F1226
:1056800093420CBF01230023DBB2002B3FD07B6889
:1056900022337A682232BA60BA68D28A002A05D1E7
:1056A0001F4B204AC02120481EF072FEBA68928A21
:1056B0001146BA6832F811203B611346FB813B6901
:1056C000DB8A012B06D81B4B1B4A40F20D111648F2
:1056D0001EF05EFE3B699B8A0133BB81BB89092BAF
:1056E00001D8BB8900E000233A69F98922F8131038
:1056F00000BF7B682233BB6140F63F13FB82BB696E
:105700009B8A1946BB69FA8A23F8112000BF786882
:1057100011F018FE034618462837BD4680BD00BF6D
:10572000205E02082C5E0208D85E0208305F020884
:10573000405F0208146002082060020880B582B051
:1057400000AF7860786811F0B5FD00BF0837BD463E
:1057500080BD80B588B002AFF860381D80E80600D3
:105760003B6007F128037B61391D7B6901937B6AEC
:1057700000933B6A3A68F8680FF04CF900BF18379D
:10578000BD4680BD90B585B000AF0346FB800023C9
:10579000FB60FB88002B27D1FB881E4A52F8233080
:1057A000002B16D0FB881B4A52F82330BB60BB6825
:1057B0001B68BA681344184A1360BB685B68BA6810
:1057C0001344164A1360BB689B68BA681344FB60B5
:1057D0000AE0114B124A1A60124A104B1A60FB88F9
:1057E000114A52F82330FB60FB68002B0DD00F4AA2
:1057F000FB88138000F03EF8044600F033F80346BF
:105800001A462146F868FFF7A5FE00BF1437BD46CB
:1058100090BD00BF581200246012002464120024BE
:105820005008009048080090700800905C12002416
:1058300080B483B000AF78600B467B80074B1A685A
:10584000074B19687B889B000B441B685B00134463
:1058500018460C37BD465DF8047B70476012002483
:105860006412002480B400AF02231846BD465DF8E0
:10587000047B704780B400AF024B1846BD465DF80C
:10588000047B70476812002480B582B000AF786056
:1058900039607B68012B18D13B684FF6FF72934249
:1058A00013D1FFF78FFD03460A4A1360FFF7E0FDAF
:1058B0000346084A5360FFF72FFD0346054A9360ED
:1058C000FFF7D2FC0346034AD36000BF0837BD464A
:1058D00080BD00BF6812002480B500AF4FF6FF7195
:1058E0000120FFF7D1FF80BD80B584B000AFF86024
:1058F000B9607A60FB687A68B9681846FEF7FAFB07
:10590000034AFB681A60FB6818461037BD4680BD25
:10591000B863020880B483B000AF78607B6800226F
:105920001A607B6818460C37BD465DF8047B7047EB
:1059300080B483B000AF786000BF0C37BD465DF81F
:10594000047B704780B483B000AF786000BF0C3731
:10595000BD465DF8047B704780B483B000AF7860CB
:1059600000BF0C37BD465DF8047B704780B483B040
:1059700000AF7860044A7B681A607B6818460C3771
:10598000BD465DF8047B7047A46C020880B582B008
:1059900000AF78607868FFF7E9FF042178681EF0AF
:1059A000C8FC7B6818460837BD4680BD80B483B00C
:1059B00000AF7860044A7B681A607B6818460C3731
:1059C000BD465DF8047B7047A46C020880B483B0C8
:1059D00000AF7860064A7B681A607B6800225A60D4
:1059E0007B6818460C37BD465DF8047B704700BFE6
:1059F000946C020880B483B000AF7860044A7B687E
:105A00001A607B6818460C37BD465DF8047B70470A
:105A1000946C020880B582B000AF78607868FFF7B8
:105A2000E9FF082178681EF084FC7B681846083777
:105A3000BD4680BD80B582B000AF7860094A7B6802
:105A40001A60094A7B685A607B6804331846FFF77E
:105A5000D1FF7B681846FFF789FF7B681846083737
:105A6000BD4680BD6C6C0208846C0208A0F1040085
:105A7000E0E700BF80B582B000AF78607868FFF7DC
:105A8000D9FF102178681EF054FC7B68184608374F
:105A9000BD4680BDA0F10400ECE7000080B582B0F7
:105AA00000AF786039607B681846FFF77FFF7B683E
:105AB00004331846FFF78AFF064A7B681A60064AD5
:105AC0007B685A607B683A68DA607B6818460837FA
:105AD000BD4680BD6C6C0208846C020880B483B043
